{
  "contractName": "BlockchainArt",
  "abi": [
    {
      "inputs": [
        {
          "internalType": "address",
          "name": "owner",
          "type": "address"
        },
        {
          "internalType": "string",
          "name": "name",
          "type": "string"
        },
        {
          "internalType": "string",
          "name": "symbol",
          "type": "string"
        },
        {
          "internalType": "uint256",
          "name": "price",
          "type": "uint256"
        },
        {
          "internalType": "string",
          "name": "uri_",
          "type": "string"
        }
      ],
      "stateMutability": "nonpayable",
      "type": "constructor"
    },
    {
      "anonymous": false,
      "inputs": [
        {
          "indexed": true,
          "internalType": "address",
          "name": "owner",
          "type": "address"
        },
        {
          "indexed": true,
          "internalType": "address",
          "name": "approved",
          "type": "address"
        },
        {
          "indexed": true,
          "internalType": "uint256",
          "name": "tokenId",
          "type": "uint256"
        }
      ],
      "name": "Approval",
      "type": "event"
    },
    {
      "anonymous": false,
      "inputs": [
        {
          "indexed": true,
          "internalType": "address",
          "name": "owner",
          "type": "address"
        },
        {
          "indexed": true,
          "internalType": "address",
          "name": "operator",
          "type": "address"
        },
        {
          "indexed": false,
          "internalType": "bool",
          "name": "approved",
          "type": "bool"
        }
      ],
      "name": "ApprovalForAll",
      "type": "event"
    },
    {
      "anonymous": false,
      "inputs": [
        {
          "indexed": false,
          "internalType": "address",
          "name": "sender",
          "type": "address"
        },
        {
          "indexed": false,
          "internalType": "uint256",
          "name": "tokenId",
          "type": "uint256"
        },
        {
          "indexed": false,
          "internalType": "address",
          "name": "approval",
          "type": "address"
        }
      ],
      "name": "Minted",
      "type": "event"
    },
    {
      "anonymous": false,
      "inputs": [
        {
          "indexed": true,
          "internalType": "address",
          "name": "previousOwner",
          "type": "address"
        },
        {
          "indexed": true,
          "internalType": "address",
          "name": "newOwner",
          "type": "address"
        }
      ],
      "name": "OwnershipTransferred",
      "type": "event"
    },
    {
      "anonymous": false,
      "inputs": [
        {
          "indexed": true,
          "internalType": "address",
          "name": "from",
          "type": "address"
        },
        {
          "indexed": true,
          "internalType": "address",
          "name": "to",
          "type": "address"
        },
        {
          "indexed": true,
          "internalType": "uint256",
          "name": "tokenId",
          "type": "uint256"
        }
      ],
      "name": "Transfer",
      "type": "event"
    },
    {
      "inputs": [
        {
          "internalType": "address",
          "name": "to",
          "type": "address"
        },
        {
          "internalType": "uint256",
          "name": "tokenId",
          "type": "uint256"
        }
      ],
      "name": "approve",
      "outputs": [],
      "stateMutability": "nonpayable",
      "type": "function"
    },
    {
      "inputs": [
        {
          "internalType": "address",
          "name": "owner",
          "type": "address"
        }
      ],
      "name": "balanceOf",
      "outputs": [
        {
          "internalType": "uint256",
          "name": "",
          "type": "uint256"
        }
      ],
      "stateMutability": "view",
      "type": "function",
      "constant": true
    },
    {
      "inputs": [
        {
          "internalType": "uint256",
          "name": "tokenId",
          "type": "uint256"
        }
      ],
      "name": "getApproved",
      "outputs": [
        {
          "internalType": "address",
          "name": "",
          "type": "address"
        }
      ],
      "stateMutability": "view",
      "type": "function",
      "constant": true
    },
    {
      "inputs": [
        {
          "internalType": "address",
          "name": "owner",
          "type": "address"
        },
        {
          "internalType": "address",
          "name": "operator",
          "type": "address"
        }
      ],
      "name": "isApprovedForAll",
      "outputs": [
        {
          "internalType": "bool",
          "name": "",
          "type": "bool"
        }
      ],
      "stateMutability": "view",
      "type": "function",
      "constant": true
    },
    {
      "inputs": [],
      "name": "name",
      "outputs": [
        {
          "internalType": "string",
          "name": "",
          "type": "string"
        }
      ],
      "stateMutability": "view",
      "type": "function",
      "constant": true
    },
    {
      "inputs": [],
      "name": "owner",
      "outputs": [
        {
          "internalType": "address",
          "name": "",
          "type": "address"
        }
      ],
      "stateMutability": "view",
      "type": "function",
      "constant": true
    },
    {
      "inputs": [
        {
          "internalType": "uint256",
          "name": "tokenId",
          "type": "uint256"
        }
      ],
      "name": "ownerOf",
      "outputs": [
        {
          "internalType": "address",
          "name": "",
          "type": "address"
        }
      ],
      "stateMutability": "view",
      "type": "function",
      "constant": true
    },
    {
      "inputs": [],
      "name": "renounceOwnership",
      "outputs": [],
      "stateMutability": "nonpayable",
      "type": "function"
    },
    {
      "inputs": [
        {
          "internalType": "address",
          "name": "from",
          "type": "address"
        },
        {
          "internalType": "address",
          "name": "to",
          "type": "address"
        },
        {
          "internalType": "uint256",
          "name": "tokenId",
          "type": "uint256"
        }
      ],
      "name": "safeTransferFrom",
      "outputs": [],
      "stateMutability": "nonpayable",
      "type": "function"
    },
    {
      "inputs": [
        {
          "internalType": "address",
          "name": "from",
          "type": "address"
        },
        {
          "internalType": "address",
          "name": "to",
          "type": "address"
        },
        {
          "internalType": "uint256",
          "name": "tokenId",
          "type": "uint256"
        },
        {
          "internalType": "bytes",
          "name": "_data",
          "type": "bytes"
        }
      ],
      "name": "safeTransferFrom",
      "outputs": [],
      "stateMutability": "nonpayable",
      "type": "function"
    },
    {
      "inputs": [
        {
          "internalType": "address",
          "name": "operator",
          "type": "address"
        },
        {
          "internalType": "bool",
          "name": "approved",
          "type": "bool"
        }
      ],
      "name": "setApprovalForAll",
      "outputs": [],
      "stateMutability": "nonpayable",
      "type": "function"
    },
    {
      "inputs": [
        {
          "internalType": "bytes4",
          "name": "interfaceId",
          "type": "bytes4"
        }
      ],
      "name": "supportsInterface",
      "outputs": [
        {
          "internalType": "bool",
          "name": "",
          "type": "bool"
        }
      ],
      "stateMutability": "view",
      "type": "function",
      "constant": true
    },
    {
      "inputs": [],
      "name": "symbol",
      "outputs": [
        {
          "internalType": "string",
          "name": "",
          "type": "string"
        }
      ],
      "stateMutability": "view",
      "type": "function",
      "constant": true
    },
    {
      "inputs": [
        {
          "internalType": "address",
          "name": "from",
          "type": "address"
        },
        {
          "internalType": "address",
          "name": "to",
          "type": "address"
        },
        {
          "internalType": "uint256",
          "name": "tokenId",
          "type": "uint256"
        }
      ],
      "name": "transferFrom",
      "outputs": [],
      "stateMutability": "nonpayable",
      "type": "function"
    },
    {
      "inputs": [
        {
          "internalType": "address",
          "name": "newOwner",
          "type": "address"
        }
      ],
      "name": "transferOwnership",
      "outputs": [],
      "stateMutability": "nonpayable",
      "type": "function"
    },
    {
      "inputs": [],
      "name": "uri",
      "outputs": [
        {
          "internalType": "string",
          "name": "",
          "type": "string"
        }
      ],
      "stateMutability": "view",
      "type": "function",
      "constant": true
    },
    {
      "inputs": [],
      "name": "tokenCount",
      "outputs": [
        {
          "internalType": "uint256",
          "name": "",
          "type": "uint256"
        }
      ],
      "stateMutability": "view",
      "type": "function",
      "constant": true
    },
    {
      "inputs": [],
      "name": "safeMint",
      "outputs": [
        {
          "internalType": "uint256",
          "name": "",
          "type": "uint256"
        }
      ],
      "stateMutability": "payable",
      "type": "function",
      "payable": true
    },
    {
      "inputs": [
        {
          "internalType": "uint256",
          "name": "tokenId",
          "type": "uint256"
        }
      ],
      "name": "tokenURI",
      "outputs": [
        {
          "internalType": "string",
          "name": "",
          "type": "string"
        }
      ],
      "stateMutability": "view",
      "type": "function",
      "constant": true
    }
  ],
  "bytecode": "0x60806040523480156200001157600080fd5b5060405162003be238038062003be28339818101604052810190620000379190620007d9565b8383816000908051906020019062000051929190620004ec565b5080600190805190602001906200006a929190620004ec565b5050506200008d620000816200014060201b60201c565b6200014860201b60201c565b600160088190555080600b9080519060200190620000ad929190620004ec565b5084600960006101000a81548173ffffffffffffffffffffffffffffffffffffffff021916908373ffffffffffffffffffffffffffffffffffffffff16021790555062000100856200020e60201b60201c565b62000135600960009054906101000a900473ffffffffffffffffffffffffffffffffffffffff1660016200032460201b60201c565b505050505062000aea565b600033905090565b6000600760009054906101000a900473ffffffffffffffffffffffffffffffffffffffff16905081600760006101000a81548173ffffffffffffffffffffffffffffffffffffffff021916908373ffffffffffffffffffffffffffffffffffffffff1602179055508173ffffffffffffffffffffffffffffffffffffffff168173ffffffffffffffffffffffffffffffffffffffff167f8be0079c531659141344cd1fd0a4f28419497f9722a3daafe3b4186f6b6457e060405160405180910390a35050565b6200021e6200014060201b60201c565b73ffffffffffffffffffffffffffffffffffffffff1662000244620004c260201b60201c565b73ffffffffffffffffffffffffffffffffffffffff16146200029d576040517f08c379a000000000000000000000000000000000000000000000000000000000815260040162000294906200091f565b60405180910390fd5b600073ffffffffffffffffffffffffffffffffffffffff168173ffffffffffffffffffffffffffffffffffffffff16141562000310576040517f08c379a00000000000000000000000000000000000000000000000000000000081526004016200030790620009b7565b60405180910390fd5b62000321816200014860201b60201c565b50565b620003346200014060201b60201c565b73ffffffffffffffffffffffffffffffffffffffff168273ffffffffffffffffffffffffffffffffffffffff161415620003a5576040517f08c379a00000000000000000000000000000000000000000000000000000000081526004016200039c9062000a29565b60405180910390fd5b8060056000620003ba6200014060201b60201c565b73ffffffffffffffffffffffffffffffffffffffff1673ffffffffffffffffffffffffffffffffffffffff16815260200190815260200160002060008473ffffffffffffffffffffffffffffffffffffffff1673ffffffffffffffffffffffffffffffffffffffff16815260200190815260200160002060006101000a81548160ff0219169083151502179055508173ffffffffffffffffffffffffffffffffffffffff166200046f6200014060201b60201c565b73ffffffffffffffffffffffffffffffffffffffff167f17307eab39ab6107e8899845ad3d59bd9653f200f220920489ca2b5937696c3183604051620004b6919062000a68565b60405180910390a35050565b6000600760009054906101000a900473ffffffffffffffffffffffffffffffffffffffff16905090565b828054620004fa9062000ab4565b90600052602060002090601f0160209004810192826200051e57600085556200056a565b82601f106200053957805160ff19168380011785556200056a565b828001600101855582156200056a579182015b82811115620005695782518255916020019190600101906200054c565b5b5090506200057991906200057d565b5090565b5b80821115620005985760008160009055506001016200057e565b5090565b6000604051905090565b600080fd5b600080fd5b600073ffffffffffffffffffffffffffffffffffffffff82169050919050565b6000620005dd82620005b0565b9050919050565b620005ef81620005d0565b8114620005fb57600080fd5b50565b6000815190506200060f81620005e4565b92915050565b600080fd5b600080fd5b6000601f19601f8301169050919050565b7f4e487b7100000000000000000000000000000000000000000000000000000000600052604160045260246000fd5b6200066a826200061f565b810181811067ffffffffffffffff821117156200068c576200068b62000630565b5b80604052505050565b6000620006a16200059c565b9050620006af82826200065f565b919050565b600067ffffffffffffffff821115620006d257620006d162000630565b5b620006dd826200061f565b9050602081019050919050565b60005b838110156200070a578082015181840152602081019050620006ed565b838111156200071a576000848401525b50505050565b6000620007376200073184620006b4565b62000695565b9050828152602081018484840111156200075657620007556200061a565b5b62000763848285620006ea565b509392505050565b600082601f83011262000783576200078262000615565b5b81516200079584826020860162000720565b91505092915050565b6000819050919050565b620007b3816200079e565b8114620007bf57600080fd5b50565b600081519050620007d381620007a8565b92915050565b600080600080600060a08688031215620007f857620007f7620005a6565b5b60006200080888828901620005fe565b955050602086015167ffffffffffffffff8111156200082c576200082b620005ab565b5b6200083a888289016200076b565b945050604086015167ffffffffffffffff8111156200085e576200085d620005ab565b5b6200086c888289016200076b565b93505060606200087f88828901620007c2565b925050608086015167ffffffffffffffff811115620008a357620008a2620005ab565b5b620008b1888289016200076b565b9150509295509295909350565b600082825260208201905092915050565b7f4f776e61626c653a2063616c6c6572206973206e6f7420746865206f776e6572600082015250565b600062000907602083620008be565b91506200091482620008cf565b602082019050919050565b600060208201905081810360008301526200093a81620008f8565b9050919050565b7f4f776e61626c653a206e6577206f776e657220697320746865207a65726f206160008201527f6464726573730000000000000000000000000000000000000000000000000000602082015250565b60006200099f602683620008be565b9150620009ac8262000941565b604082019050919050565b60006020820190508181036000830152620009d28162000990565b9050919050565b7f4552433732313a20617070726f766520746f2063616c6c657200000000000000600082015250565b600062000a11601983620008be565b915062000a1e82620009d9565b602082019050919050565b6000602082019050818103600083015262000a448162000a02565b9050919050565b60008115159050919050565b62000a628162000a4b565b82525050565b600060208201905062000a7f600083018462000a57565b92915050565b7f4e487b7100000000000000000000000000000000000000000000000000000000600052602260045260246000fd5b6000600282049050600182168062000acd57607f821691505b6020821081141562000ae45762000ae362000a85565b5b50919050565b6130e88062000afa6000396000f3fe6080604052600436106101145760003560e01c8063715018a6116100a0578063b88d4fde11610064578063b88d4fde14610392578063c87b56dd146103bb578063e985e9c5146103f8578063eac989f814610435578063f2fde38b1461046057610114565b8063715018a6146102d15780638da5cb5b146102e857806395d89b41146103135780639f181b5e1461033e578063a22cb4651461036957610114565b806323b872dd116100e757806323b872dd146101e757806342842e0e146102105780636352211e146102395780636871ee401461027657806370a082311461029457610114565b806301ffc9a71461011957806306fdde0314610156578063081812fc14610181578063095ea7b3146101be575b600080fd5b34801561012557600080fd5b50610140600480360381019061013b9190611e38565b610489565b60405161014d9190611e80565b60405180910390f35b34801561016257600080fd5b5061016b61056b565b6040516101789190611f34565b60405180910390f35b34801561018d57600080fd5b506101a860048036038101906101a39190611f8c565b6105fd565b6040516101b59190611ffa565b60405180910390f35b3480156101ca57600080fd5b506101e560048036038101906101e09190612041565b610682565b005b3480156101f357600080fd5b5061020e60048036038101906102099190612081565b61079a565b005b34801561021c57600080fd5b5061023760048036038101906102329190612081565b6107fa565b005b34801561024557600080fd5b50610260600480360381019061025b9190611f8c565b61081a565b60405161026d9190611ffa565b60405180910390f35b61027e6108cc565b60405161028b91906120e3565b60405180910390f35b3480156102a057600080fd5b506102bb60048036038101906102b691906120fe565b6109c6565b6040516102c891906120e3565b60405180910390f35b3480156102dd57600080fd5b506102e6610a7e565b005b3480156102f457600080fd5b506102fd610b06565b60405161030a9190611ffa565b60405180910390f35b34801561031f57600080fd5b50610328610b30565b6040516103359190611f34565b60405180910390f35b34801561034a57600080fd5b50610353610bc2565b60405161036091906120e3565b60405180910390f35b34801561037557600080fd5b50610390600480360381019061038b9190612157565b610bd3565b005b34801561039e57600080fd5b506103b960048036038101906103b491906122cc565b610d54565b005b3480156103c757600080fd5b506103e260048036038101906103dd9190611f8c565b610db6565b6040516103ef9190611f34565b60405180910390f35b34801561040457600080fd5b5061041f600480360381019061041a919061234f565b610dc8565b60405161042c9190611e80565b60405180910390f35b34801561044157600080fd5b5061044a610e5c565b6040516104579190611f34565b60405180910390f35b34801561046c57600080fd5b50610487600480360381019061048291906120fe565b610eea565b005b60007f80ac58cd000000000000000000000000000000000000000000000000000000007bffffffffffffffffffffffffffffffffffffffffffffffffffffffff1916827bffffffffffffffffffffffffffffffffffffffffffffffffffffffff1916148061055457507f5b5e139f000000000000000000000000000000000000000000000000000000007bffffffffffffffffffffffffffffffffffffffffffffffffffffffff1916827bffffffffffffffffffffffffffffffffffffffffffffffffffffffff1916145b80610564575061056382610fe2565b5b9050919050565b60606000805461057a906123be565b80601f01602080910402602001604051908101604052809291908181526020018280546105a6906123be565b80156105f35780601f106105c8576101008083540402835291602001916105f3565b820191906000526020600020905b8154815290600101906020018083116105d657829003601f168201915b5050505050905090565b60006106088261104c565b610647576040517f08c379a000000000000000000000000000000000000000000000000000000000815260040161063e90612462565b60405180910390fd5b6004600083815260200190815260200160002060009054906101000a900473ffffffffffffffffffffffffffffffffffffffff169050919050565b600061068d8261081a565b90508073ffffffffffffffffffffffffffffffffffffffff168373ffffffffffffffffffffffffffffffffffffffff1614156106fe576040517f08c379a00000000000000000000000000000000000000000000000000000000081526004016106f5906124f4565b60405180910390fd5b8073ffffffffffffffffffffffffffffffffffffffff1661071d6110b8565b73ffffffffffffffffffffffffffffffffffffffff16148061074c575061074b816107466110b8565b610dc8565b5b61078b576040517f08c379a000000000000000000000000000000000000000000000000000000000815260040161078290612586565b60405180910390fd5b61079583836110c0565b505050565b6107ab6107a56110b8565b82611179565b6107ea576040517f08c379a00000000000000000000000000000000000000000000000000000000081526004016107e190612618565b60405180910390fd5b6107f5838383611257565b505050565b61081583838360405180602001604052806000815250610d54565b505050565b6000806002600084815260200190815260200160002060009054906101000a900473ffffffffffffffffffffffffffffffffffffffff169050600073ffffffffffffffffffffffffffffffffffffffff168173ffffffffffffffffffffffffffffffffffffffff1614156108c3576040517f08c379a00000000000000000000000000000000000000000000000000000000081526004016108ba906126aa565b60405180910390fd5b80915050919050565b6000600c54341015610913576040517f08c379a000000000000000000000000000000000000000000000000000000000815260040161090a90612716565b60405180910390fd5b600061091f600a6114b3565b905061092b600a6114c1565b61093533826114d7565b610962600960009054906101000a900473ffffffffffffffffffffffffffffffffffffffff166001610bd3565b7ffd1ba5519feb014ad2f631cbd516bd3cec96be935749391554d122972593e7bf3382600960009054906101000a900473ffffffffffffffffffffffffffffffffffffffff166040516109b793929190612736565b60405180910390a18091505090565b60008073ffffffffffffffffffffffffffffffffffffffff168273ffffffffffffffffffffffffffffffffffffffff161415610a37576040517f08c379a0000000000000000000000000000000000000000000000000000000008152600401610a2e906127df565b60405180910390fd5b600360008373ffffffffffffffffffffffffffffffffffffffff1673ffffffffffffffffffffffffffffffffffffffff168152602001908152602001600020549050919050565b610a866110b8565b73ffffffffffffffffffffffffffffffffffffffff16610aa4610b06565b73ffffffffffffffffffffffffffffffffffffffff1614610afa576040517f08c379a0000000000000000000000000000000000000000000000000000000008152600401610af19061284b565b60405180910390fd5b610b0460006114f5565b565b6000600760009054906101000a900473ffffffffffffffffffffffffffffffffffffffff16905090565b606060018054610b3f906123be565b80601f0160208091040260200160405190810160405280929190818152602001828054610b6b906123be565b8015610bb85780601f10610b8d57610100808354040283529160200191610bb8565b820191906000526020600020905b815481529060010190602001808311610b9b57829003601f168201915b5050505050905090565b6000610bce600a6114b3565b905090565b610bdb6110b8565b73ffffffffffffffffffffffffffffffffffffffff168273ffffffffffffffffffffffffffffffffffffffff161415610c49576040517f08c379a0000000000000000000000000000000000000000000000000000000008152600401610c40906128b7565b60405180910390fd5b8060056000610c566110b8565b73ffffffffffffffffffffffffffffffffffffffff1673ffffffffffffffffffffffffffffffffffffffff16815260200190815260200160002060008473ffffffffffffffffffffffffffffffffffffffff1673ffffffffffffffffffffffffffffffffffffffff16815260200190815260200160002060006101000a81548160ff0219169083151502179055508173ffffffffffffffffffffffffffffffffffffffff16610d036110b8565b73ffffffffffffffffffffffffffffffffffffffff167f17307eab39ab6107e8899845ad3d59bd9653f200f220920489ca2b5937696c3183604051610d489190611e80565b60405180910390a35050565b610d65610d5f6110b8565b83611179565b610da4576040517f08c379a0000000000000000000000000000000000000000000000000000000008152600401610d9b90612618565b60405180910390fd5b610db0848484846115bb565b50505050565b6060610dc182611617565b9050919050565b6000600560008473ffffffffffffffffffffffffffffffffffffffff1673ffffffffffffffffffffffffffffffffffffffff16815260200190815260200160002060008373ffffffffffffffffffffffffffffffffffffffff1673ffffffffffffffffffffffffffffffffffffffff16815260200190815260200160002060009054906101000a900460ff16905092915050565b600b8054610e69906123be565b80601f0160208091040260200160405190810160405280929190818152602001828054610e95906123be565b8015610ee25780601f10610eb757610100808354040283529160200191610ee2565b820191906000526020600020905b815481529060010190602001808311610ec557829003601f168201915b505050505081565b610ef26110b8565b73ffffffffffffffffffffffffffffffffffffffff16610f10610b06565b73ffffffffffffffffffffffffffffffffffffffff1614610f66576040517f08c379a0000000000000000000000000000000000000000000000000000000008152600401610f5d9061284b565b60405180910390fd5b600073ffffffffffffffffffffffffffffffffffffffff168173ffffffffffffffffffffffffffffffffffffffff161415610fd6576040517f08c379a0000000000000000000000000000000000000000000000000000000008152600401610fcd90612949565b60405180910390fd5b610fdf816114f5565b50565b60007f01ffc9a7000000000000000000000000000000000000000000000000000000007bffffffffffffffffffffffffffffffffffffffffffffffffffffffff1916827bffffffffffffffffffffffffffffffffffffffffffffffffffffffff1916149050919050565b60008073ffffffffffffffffffffffffffffffffffffffff166002600084815260200190815260200160002060009054906101000a900473ffffffffffffffffffffffffffffffffffffffff1673ffffffffffffffffffffffffffffffffffffffff1614159050919050565b600033905090565b816004600083815260200190815260200160002060006101000a81548173ffffffffffffffffffffffffffffffffffffffff021916908373ffffffffffffffffffffffffffffffffffffffff160217905550808273ffffffffffffffffffffffffffffffffffffffff166111338361081a565b73ffffffffffffffffffffffffffffffffffffffff167f8c5be1e5ebec7d5bd14f71427d1e84f3dd0314c0f7b2291e5b200ac8c7c3b92560405160405180910390a45050565b60006111848261104c565b6111c3576040517f08c379a00000000000000000000000000000000000000000000000000000000081526004016111ba906129db565b60405180910390fd5b60006111ce8361081a565b90508073ffffffffffffffffffffffffffffffffffffffff168473ffffffffffffffffffffffffffffffffffffffff16148061123d57508373ffffffffffffffffffffffffffffffffffffffff16611225846105fd565b73ffffffffffffffffffffffffffffffffffffffff16145b8061124e575061124d8185610dc8565b5b91505092915050565b8273ffffffffffffffffffffffffffffffffffffffff166112778261081a565b73ffffffffffffffffffffffffffffffffffffffff16146112cd576040517f08c379a00000000000000000000000000000000000000000000000000000000081526004016112c490612a6d565b60405180910390fd5b600073ffffffffffffffffffffffffffffffffffffffff168273ffffffffffffffffffffffffffffffffffffffff16141561133d576040517f08c379a000000000000000000000000000000000000000000000000000000000815260040161133490612aff565b60405180910390fd5b611348838383611769565b6113536000826110c0565b6001600360008573ffffffffffffffffffffffffffffffffffffffff1673ffffffffffffffffffffffffffffffffffffffff16815260200190815260200160002060008282546113a39190612b4e565b925050819055506001600360008473ffffffffffffffffffffffffffffffffffffffff1673ffffffffffffffffffffffffffffffffffffffff16815260200190815260200160002060008282546113fa9190612b82565b92505081905550816002600083815260200190815260200160002060006101000a81548173ffffffffffffffffffffffffffffffffffffffff021916908373ffffffffffffffffffffffffffffffffffffffff160217905550808273ffffffffffffffffffffffffffffffffffffffff168473ffffffffffffffffffffffffffffffffffffffff167fddf252ad1be2c89b69c2b068fc378daa952ba7f163c4a11628f55a4df523b3ef60405160405180910390a4505050565b600081600001549050919050565b6001816000016000828254019250508190555050565b6114f182826040518060200160405280600081525061176e565b5050565b6000600760009054906101000a900473ffffffffffffffffffffffffffffffffffffffff16905081600760006101000a81548173ffffffffffffffffffffffffffffffffffffffff021916908373ffffffffffffffffffffffffffffffffffffffff1602179055508173ffffffffffffffffffffffffffffffffffffffff168173ffffffffffffffffffffffffffffffffffffffff167f8be0079c531659141344cd1fd0a4f28419497f9722a3daafe3b4186f6b6457e060405160405180910390a35050565b6115c6848484611257565b6115d2848484846117c9565b611611576040517f08c379a000000000000000000000000000000000000000000000000000000000815260040161160890612c4a565b60405180910390fd5b50505050565b60606116228261104c565b611661576040517f08c379a000000000000000000000000000000000000000000000000000000000815260040161165890612cdc565b60405180910390fd5b6000600660008481526020019081526020016000208054611681906123be565b80601f01602080910402602001604051908101604052809291908181526020018280546116ad906123be565b80156116fa5780601f106116cf576101008083540402835291602001916116fa565b820191906000526020600020905b8154815290600101906020018083116116dd57829003601f168201915b50505050509050600061170b611951565b9050600081511415611721578192505050611764565b60008251111561175657808260405160200161173e929190612d38565b60405160208183030381529060405292505050611764565b61175f846119e3565b925050505b919050565b505050565b6117788383611a8a565b61178560008484846117c9565b6117c4576040517f08c379a00000000000000000000000000000000000000000000000000000000081526004016117bb90612c4a565b60405180910390fd5b505050565b60006117ea8473ffffffffffffffffffffffffffffffffffffffff16611c58565b15611944578373ffffffffffffffffffffffffffffffffffffffff1663150b7a026118136110b8565b8786866040518563ffffffff1660e01b81526004016118359493929190612db1565b6020604051808303816000875af192505050801561187157506040513d601f19601f8201168201806040525081019061186e9190612e12565b60015b6118f4573d80600081146118a1576040519150601f19603f3d011682016040523d82523d6000602084013e6118a6565b606091505b506000815114156118ec576040517f08c379a00000000000000000000000000000000000000000000000000000000081526004016118e390612c4a565b60405180910390fd5b805181602001fd5b63150b7a0260e01b7bffffffffffffffffffffffffffffffffffffffffffffffffffffffff1916817bffffffffffffffffffffffffffffffffffffffffffffffffffffffff191614915050611949565b600190505b949350505050565b6060600b8054611960906123be565b80601f016020809104026020016040519081016040528092919081815260200182805461198c906123be565b80156119d95780601f106119ae576101008083540402835291602001916119d9565b820191906000526020600020905b8154815290600101906020018083116119bc57829003601f168201915b5050505050905090565b60606119ee8261104c565b611a2d576040517f08c379a0000000000000000000000000000000000000000000000000000000008152600401611a2490612eb1565b60405180910390fd5b6000611a37611951565b90506000815111611a575760405180602001604052806000815250611a82565b80611a6184611c6b565b604051602001611a72929190612d38565b6040516020818303038152906040525b915050919050565b600073ffffffffffffffffffffffffffffffffffffffff168273ffffffffffffffffffffffffffffffffffffffff161415611afa576040517f08c379a0000000000000000000000000000000000000000000000000000000008152600401611af190612f1d565b60405180910390fd5b611b038161104c565b15611b43576040517f08c379a0000000000000000000000000000000000000000000000000000000008152600401611b3a90612f89565b60405180910390fd5b611b4f60008383611769565b6001600360008473ffffffffffffffffffffffffffffffffffffffff1673ffffffffffffffffffffffffffffffffffffffff1681526020019081526020016000206000828254611b9f9190612b82565b92505081905550816002600083815260200190815260200160002060006101000a81548173ffffffffffffffffffffffffffffffffffffffff021916908373ffffffffffffffffffffffffffffffffffffffff160217905550808273ffffffffffffffffffffffffffffffffffffffff16600073ffffffffffffffffffffffffffffffffffffffff167fddf252ad1be2c89b69c2b068fc378daa952ba7f163c4a11628f55a4df523b3ef60405160405180910390a45050565b600080823b905060008111915050919050565b60606000821415611cb3576040518060400160405280600181526020017f30000000000000000000000000000000000000000000000000000000000000008152509050611dc7565b600082905060005b60008214611ce5578080611cce90612fa9565b915050600a82611cde9190613021565b9150611cbb565b60008167ffffffffffffffff811115611d0157611d006121a1565b5b6040519080825280601f01601f191660200182016040528015611d335781602001600182028036833780820191505090505b5090505b60008514611dc057600182611d4c9190612b4e565b9150600a85611d5b9190613052565b6030611d679190612b82565b60f81b818381518110611d7d57611d7c613083565b5b60200101907effffffffffffffffffffffffffffffffffffffffffffffffffffffffffffff1916908160001a905350600a85611db99190613021565b9450611d37565b8093505050505b919050565b6000604051905090565b600080fd5b600080fd5b60007fffffffff0000000000000000000000000000000000000000000000000000000082169050919050565b611e1581611de0565b8114611e2057600080fd5b50565b600081359050611e3281611e0c565b92915050565b600060208284031215611e4e57611e4d611dd6565b5b6000611e5c84828501611e23565b91505092915050565b60008115159050919050565b611e7a81611e65565b82525050565b6000602082019050611e956000830184611e71565b92915050565b600081519050919050565b600082825260208201905092915050565b60005b83811015611ed5578082015181840152602081019050611eba565b83811115611ee4576000848401525b50505050565b6000601f19601f8301169050919050565b6000611f0682611e9b565b611f108185611ea6565b9350611f20818560208601611eb7565b611f2981611eea565b840191505092915050565b60006020820190508181036000830152611f4e8184611efb565b905092915050565b6000819050919050565b611f6981611f56565b8114611f7457600080fd5b50565b600081359050611f8681611f60565b92915050565b600060208284031215611fa257611fa1611dd6565b5b6000611fb084828501611f77565b91505092915050565b600073ffffffffffffffffffffffffffffffffffffffff82169050919050565b6000611fe482611fb9565b9050919050565b611ff481611fd9565b82525050565b600060208201905061200f6000830184611feb565b92915050565b61201e81611fd9565b811461202957600080fd5b50565b60008135905061203b81612015565b92915050565b6000806040838503121561205857612057611dd6565b5b60006120668582860161202c565b925050602061207785828601611f77565b9150509250929050565b60008060006060848603121561209a57612099611dd6565b5b60006120a88682870161202c565b93505060206120b98682870161202c565b92505060406120ca86828701611f77565b9150509250925092565b6120dd81611f56565b82525050565b60006020820190506120f860008301846120d4565b92915050565b60006020828403121561211457612113611dd6565b5b60006121228482850161202c565b91505092915050565b61213481611e65565b811461213f57600080fd5b50565b6000813590506121518161212b565b92915050565b6000806040838503121561216e5761216d611dd6565b5b600061217c8582860161202c565b925050602061218d85828601612142565b9150509250929050565b600080fd5b600080fd5b7f4e487b7100000000000000000000000000000000000000000000000000000000600052604160045260246000fd5b6121d982611eea565b810181811067ffffffffffffffff821117156121f8576121f76121a1565b5b80604052505050565b600061220b611dcc565b905061221782826121d0565b919050565b600067ffffffffffffffff821115612237576122366121a1565b5b61224082611eea565b9050602081019050919050565b82818337600083830152505050565b600061226f61226a8461221c565b612201565b90508281526020810184848401111561228b5761228a61219c565b5b61229684828561224d565b509392505050565b600082601f8301126122b3576122b2612197565b5b81356122c384826020860161225c565b91505092915050565b600080600080608085870312156122e6576122e5611dd6565b5b60006122f48782880161202c565b94505060206123058782880161202c565b935050604061231687828801611f77565b925050606085013567ffffffffffffffff81111561233757612336611ddb565b5b6123438782880161229e565b91505092959194509250565b6000806040838503121561236657612365611dd6565b5b60006123748582860161202c565b92505060206123858582860161202c565b9150509250929050565b7f4e487b7100000000000000000000000000000000000000000000000000000000600052602260045260246000fd5b600060028204905060018216806123d657607f821691505b602082108114156123ea576123e961238f565b5b50919050565b7f4552433732313a20617070726f76656420717565727920666f72206e6f6e657860008201527f697374656e7420746f6b656e0000000000000000000000000000000000000000602082015250565b600061244c602c83611ea6565b9150612457826123f0565b604082019050919050565b6000602082019050818103600083015261247b8161243f565b9050919050565b7f4552433732313a20617070726f76616c20746f2063757272656e74206f776e6560008201527f7200000000000000000000000000000000000000000000000000000000000000602082015250565b60006124de602183611ea6565b91506124e982612482565b604082019050919050565b6000602082019050818103600083015261250d816124d1565b9050919050565b7f4552433732313a20617070726f76652063616c6c6572206973206e6f74206f7760008201527f6e6572206e6f7220617070726f76656420666f7220616c6c0000000000000000602082015250565b6000612570603883611ea6565b915061257b82612514565b604082019050919050565b6000602082019050818103600083015261259f81612563565b9050919050565b7f4552433732313a207472616e736665722063616c6c6572206973206e6f74206f60008201527f776e6572206e6f7220617070726f766564000000000000000000000000000000602082015250565b6000612602603183611ea6565b915061260d826125a6565b604082019050919050565b60006020820190508181036000830152612631816125f5565b9050919050565b7f4552433732313a206f776e657220717565727920666f72206e6f6e657869737460008201527f656e7420746f6b656e0000000000000000000000000000000000000000000000602082015250565b6000612694602983611ea6565b915061269f82612638565b604082019050919050565b600060208201905081810360008301526126c381612687565b9050919050565b7f56616c7565207061696420697320746f6f206c6f770000000000000000000000600082015250565b6000612700601583611ea6565b915061270b826126ca565b602082019050919050565b6000602082019050818103600083015261272f816126f3565b9050919050565b600060608201905061274b6000830186611feb565b61275860208301856120d4565b6127656040830184611feb565b949350505050565b7f4552433732313a2062616c616e636520717565727920666f7220746865207a6560008201527f726f206164647265737300000000000000000000000000000000000000000000602082015250565b60006127c9602a83611ea6565b91506127d48261276d565b604082019050919050565b600060208201905081810360008301526127f8816127bc565b9050919050565b7f4f776e61626c653a2063616c6c6572206973206e6f7420746865206f776e6572600082015250565b6000612835602083611ea6565b9150612840826127ff565b602082019050919050565b6000602082019050818103600083015261286481612828565b9050919050565b7f4552433732313a20617070726f766520746f2063616c6c657200000000000000600082015250565b60006128a1601983611ea6565b91506128ac8261286b565b602082019050919050565b600060208201905081810360008301526128d081612894565b9050919050565b7f4f776e61626c653a206e6577206f776e657220697320746865207a65726f206160008201527f6464726573730000000000000000000000000000000000000000000000000000602082015250565b6000612933602683611ea6565b915061293e826128d7565b604082019050919050565b6000602082019050818103600083015261296281612926565b9050919050565b7f4552433732313a206f70657261746f7220717565727920666f72206e6f6e657860008201527f697374656e7420746f6b656e0000000000000000000000000000000000000000602082015250565b60006129c5602c83611ea6565b91506129d082612969565b604082019050919050565b600060208201905081810360008301526129f4816129b8565b9050919050565b7f4552433732313a207472616e73666572206f6620746f6b656e2074686174206960008201527f73206e6f74206f776e0000000000000000000000000000000000000000000000602082015250565b6000612a57602983611ea6565b9150612a62826129fb565b604082019050919050565b60006020820190508181036000830152612a8681612a4a565b9050919050565b7f4552433732313a207472616e7366657220746f20746865207a65726f2061646460008201527f7265737300000000000000000000000000000000000000000000000000000000602082015250565b6000612ae9602483611ea6565b9150612af482612a8d565b604082019050919050565b60006020820190508181036000830152612b1881612adc565b9050919050565b7f4e487b7100000000000000000000000000000000000000000000000000000000600052601160045260246000fd5b6000612b5982611f56565b9150612b6483611f56565b925082821015612b7757612b76612b1f565b5b828203905092915050565b6000612b8d82611f56565b9150612b9883611f56565b9250827fffffffffffffffffffffffffffffffffffffffffffffffffffffffffffffffff03821115612bcd57612bcc612b1f565b5b828201905092915050565b7f4552433732313a207472616e7366657220746f206e6f6e20455243373231526560008201527f63656976657220696d706c656d656e7465720000000000000000000000000000602082015250565b6000612c34603283611ea6565b9150612c3f82612bd8565b604082019050919050565b60006020820190508181036000830152612c6381612c27565b9050919050565b7f45524337323155524953746f726167653a2055524920717565727920666f722060008201527f6e6f6e6578697374656e7420746f6b656e000000000000000000000000000000602082015250565b6000612cc6603183611ea6565b9150612cd182612c6a565b604082019050919050565b60006020820190508181036000830152612cf581612cb9565b9050919050565b600081905092915050565b6000612d1282611e9b565b612d1c8185612cfc565b9350612d2c818560208601611eb7565b80840191505092915050565b6000612d448285612d07565b9150612d508284612d07565b91508190509392505050565b600081519050919050565b600082825260208201905092915050565b6000612d8382612d5c565b612d8d8185612d67565b9350612d9d818560208601611eb7565b612da681611eea565b840191505092915050565b6000608082019050612dc66000830187611feb565b612dd36020830186611feb565b612de060408301856120d4565b8181036060830152612df28184612d78565b905095945050505050565b600081519050612e0c81611e0c565b92915050565b600060208284031215612e2857612e27611dd6565b5b6000612e3684828501612dfd565b91505092915050565b7f4552433732314d657461646174613a2055524920717565727920666f72206e6f60008201527f6e6578697374656e7420746f6b656e0000000000000000000000000000000000602082015250565b6000612e9b602f83611ea6565b9150612ea682612e3f565b604082019050919050565b60006020820190508181036000830152612eca81612e8e565b9050919050565b7f4552433732313a206d696e7420746f20746865207a65726f2061646472657373600082015250565b6000612f07602083611ea6565b9150612f1282612ed1565b602082019050919050565b60006020820190508181036000830152612f3681612efa565b9050919050565b7f4552433732313a20746f6b656e20616c7265616479206d696e74656400000000600082015250565b6000612f73601c83611ea6565b9150612f7e82612f3d565b602082019050919050565b60006020820190508181036000830152612fa281612f66565b9050919050565b6000612fb482611f56565b91507fffffffffffffffffffffffffffffffffffffffffffffffffffffffffffffffff821415612fe757612fe6612b1f565b5b600182019050919050565b7f4e487b7100000000000000000000000000000000000000000000000000000000600052601260045260246000fd5b600061302c82611f56565b915061303783611f56565b92508261304757613046612ff2565b5b828204905092915050565b600061305d82611f56565b915061306883611f56565b92508261307857613077612ff2565b5b828206905092915050565b7f4e487b7100000000000000000000000000000000000000000000000000000000600052603260045260246000fdfea264697066735822122053719d78871ab498e6f74b9d3a8d326c9e0b2485d1b4d69a5b4957d5a83d6cae64736f6c634300080a0033",
  "immutableReferences": {},
  "source": "// SPDX-License-Identifier: MIT\npragma solidity 0.8.10;\n\nimport \"@openzeppelin/contracts/token/ERC721/ERC721.sol\";\nimport \"@openzeppelin/contracts/token/ERC721/extensions/ERC721URIStorage.sol\";\nimport \"@openzeppelin/contracts/access/Ownable.sol\";\nimport \"@openzeppelin/contracts/utils/Counters.sol\";\nimport \"@openzeppelin/contracts/token/ERC721/IERC721Receiver.sol\";\nimport \"@openzeppelin/contracts/security/ReentrancyGuard.sol\";\n\ncontract BlockchainArt is ERC721, ERC721URIStorage, Ownable, ReentrancyGuard {\n    using Counters for Counters.Counter;\n    address contractOwner;\n    Counters.Counter private _tokenIdCounter;\n    string public uri;\n    uint artPrice;\n\n    event Minted(address sender, uint tokenId, address approval);\n\n\n    constructor(address owner, string memory name, string memory symbol, uint price, string memory uri_) ERC721(name, symbol) {\n        uri = uri_;\n        contractOwner = owner;\n        transferOwnership(owner);\n        setApprovalForAll(contractOwner, true);\n\n        // require(owner == this.owner());\n    }\n\n    function _baseURI() internal view override returns (string memory) {\n        return uri;\n    }\n\n    function tokenCount() public view returns (uint) {\n        return _tokenIdCounter.current();\n    }\n\n    function safeMint() payable public returns (uint) {\n        require(msg.value >= artPrice, \"Value paid is too low\");\n\n        uint tokenId = _tokenIdCounter.current();\n        _tokenIdCounter.increment();\n\n        _safeMint(msg.sender, tokenId);\n        setApprovalForAll(contractOwner, true);\n\n        emit Minted(msg.sender, tokenId, contractOwner);\n        return tokenId;\n    }\n\n    function _burn(uint256 tokenId) internal override(ERC721, ERC721URIStorage) {\n        super._burn(tokenId);\n    }\n\n    function tokenURI(uint256 tokenId)\n        public\n        view\n        override(ERC721, ERC721URIStorage)\n        returns (string memory)\n    {\n        return super.tokenURI(tokenId);\n    }\n}\n",
  "sourcePath": "/Users/pablo/Work/Projects/blockchain-developer-bootcamp-final-project/contracts/BlockchainArt.sol",
  "compiler": {
    "name": "solc",
    "version": "0.8.10+commit.fc410830.Emscripten.clang"
  },
  "schemaVersion": "3.4.3",
  "updatedAt": "2021-11-28T19:34:38.733Z",
  "networkType": "ethereum",
  "devdoc": {
    "kind": "dev",
    "methods": {
      "approve(address,uint256)": {
        "details": "See {IERC721-approve}."
      },
      "balanceOf(address)": {
        "details": "See {IERC721-balanceOf}."
      },
      "getApproved(uint256)": {
        "details": "See {IERC721-getApproved}."
      },
      "isApprovedForAll(address,address)": {
        "details": "See {IERC721-isApprovedForAll}."
      },
      "name()": {
        "details": "See {IERC721Metadata-name}."
      },
      "owner()": {
        "details": "Returns the address of the current owner."
      },
      "ownerOf(uint256)": {
        "details": "See {IERC721-ownerOf}."
      },
      "renounceOwnership()": {
        "details": "Leaves the contract without owner. It will not be possible to call `onlyOwner` functions anymore. Can only be called by the current owner. NOTE: Renouncing ownership will leave the contract without an owner, thereby removing any functionality that is only available to the owner."
      },
      "safeTransferFrom(address,address,uint256)": {
        "details": "See {IERC721-safeTransferFrom}."
      },
      "safeTransferFrom(address,address,uint256,bytes)": {
        "details": "See {IERC721-safeTransferFrom}."
      },
      "setApprovalForAll(address,bool)": {
        "details": "See {IERC721-setApprovalForAll}."
      },
      "supportsInterface(bytes4)": {
        "details": "See {IERC165-supportsInterface}."
      },
      "symbol()": {
        "details": "See {IERC721Metadata-symbol}."
      },
      "transferFrom(address,address,uint256)": {
        "details": "See {IERC721-transferFrom}."
      },
      "transferOwnership(address)": {
        "details": "Transfers ownership of the contract to a new account (`newOwner`). Can only be called by the current owner."
      }
    },
    "version": 1
  },
  "userdoc": {
    "kind": "user",
    "methods": {},
    "version": 1
  }
}