{
  "contractName": "BlockchainArt",
  "abi": [
    {
      "inputs": [
        {
          "internalType": "address",
          "name": "owner",
          "type": "address"
        },
        {
          "internalType": "string",
          "name": "name",
          "type": "string"
        },
        {
          "internalType": "string",
          "name": "symbol",
          "type": "string"
        },
        {
          "internalType": "uint256",
          "name": "price",
          "type": "uint256"
        },
        {
          "internalType": "string",
          "name": "uri_",
          "type": "string"
        }
      ],
      "stateMutability": "nonpayable",
      "type": "constructor"
    },
    {
      "anonymous": false,
      "inputs": [
        {
          "indexed": true,
          "internalType": "address",
          "name": "owner",
          "type": "address"
        },
        {
          "indexed": true,
          "internalType": "address",
          "name": "approved",
          "type": "address"
        },
        {
          "indexed": true,
          "internalType": "uint256",
          "name": "tokenId",
          "type": "uint256"
        }
      ],
      "name": "Approval",
      "type": "event"
    },
    {
      "anonymous": false,
      "inputs": [
        {
          "indexed": true,
          "internalType": "address",
          "name": "owner",
          "type": "address"
        },
        {
          "indexed": true,
          "internalType": "address",
          "name": "operator",
          "type": "address"
        },
        {
          "indexed": false,
          "internalType": "bool",
          "name": "approved",
          "type": "bool"
        }
      ],
      "name": "ApprovalForAll",
      "type": "event"
    },
    {
      "anonymous": false,
      "inputs": [
        {
          "indexed": false,
          "internalType": "address",
          "name": "sender",
          "type": "address"
        },
        {
          "indexed": false,
          "internalType": "address",
          "name": "to",
          "type": "address"
        },
        {
          "indexed": false,
          "internalType": "address",
          "name": "approval",
          "type": "address"
        }
      ],
      "name": "Minted",
      "type": "event"
    },
    {
      "anonymous": false,
      "inputs": [
        {
          "indexed": true,
          "internalType": "address",
          "name": "previousOwner",
          "type": "address"
        },
        {
          "indexed": true,
          "internalType": "address",
          "name": "newOwner",
          "type": "address"
        }
      ],
      "name": "OwnershipTransferred",
      "type": "event"
    },
    {
      "anonymous": false,
      "inputs": [
        {
          "indexed": true,
          "internalType": "address",
          "name": "from",
          "type": "address"
        },
        {
          "indexed": true,
          "internalType": "address",
          "name": "to",
          "type": "address"
        },
        {
          "indexed": true,
          "internalType": "uint256",
          "name": "tokenId",
          "type": "uint256"
        }
      ],
      "name": "Transfer",
      "type": "event"
    },
    {
      "inputs": [
        {
          "internalType": "address",
          "name": "to",
          "type": "address"
        },
        {
          "internalType": "uint256",
          "name": "tokenId",
          "type": "uint256"
        }
      ],
      "name": "approve",
      "outputs": [],
      "stateMutability": "nonpayable",
      "type": "function"
    },
    {
      "inputs": [
        {
          "internalType": "address",
          "name": "owner",
          "type": "address"
        }
      ],
      "name": "balanceOf",
      "outputs": [
        {
          "internalType": "uint256",
          "name": "",
          "type": "uint256"
        }
      ],
      "stateMutability": "view",
      "type": "function",
      "constant": true
    },
    {
      "inputs": [
        {
          "internalType": "uint256",
          "name": "tokenId",
          "type": "uint256"
        }
      ],
      "name": "getApproved",
      "outputs": [
        {
          "internalType": "address",
          "name": "",
          "type": "address"
        }
      ],
      "stateMutability": "view",
      "type": "function",
      "constant": true
    },
    {
      "inputs": [
        {
          "internalType": "address",
          "name": "owner",
          "type": "address"
        },
        {
          "internalType": "address",
          "name": "operator",
          "type": "address"
        }
      ],
      "name": "isApprovedForAll",
      "outputs": [
        {
          "internalType": "bool",
          "name": "",
          "type": "bool"
        }
      ],
      "stateMutability": "view",
      "type": "function",
      "constant": true
    },
    {
      "inputs": [],
      "name": "name",
      "outputs": [
        {
          "internalType": "string",
          "name": "",
          "type": "string"
        }
      ],
      "stateMutability": "view",
      "type": "function",
      "constant": true
    },
    {
      "inputs": [],
      "name": "owner",
      "outputs": [
        {
          "internalType": "address",
          "name": "",
          "type": "address"
        }
      ],
      "stateMutability": "view",
      "type": "function",
      "constant": true
    },
    {
      "inputs": [
        {
          "internalType": "uint256",
          "name": "tokenId",
          "type": "uint256"
        }
      ],
      "name": "ownerOf",
      "outputs": [
        {
          "internalType": "address",
          "name": "",
          "type": "address"
        }
      ],
      "stateMutability": "view",
      "type": "function",
      "constant": true
    },
    {
      "inputs": [],
      "name": "renounceOwnership",
      "outputs": [],
      "stateMutability": "nonpayable",
      "type": "function"
    },
    {
      "inputs": [
        {
          "internalType": "address",
          "name": "from",
          "type": "address"
        },
        {
          "internalType": "address",
          "name": "to",
          "type": "address"
        },
        {
          "internalType": "uint256",
          "name": "tokenId",
          "type": "uint256"
        }
      ],
      "name": "safeTransferFrom",
      "outputs": [],
      "stateMutability": "nonpayable",
      "type": "function"
    },
    {
      "inputs": [
        {
          "internalType": "address",
          "name": "from",
          "type": "address"
        },
        {
          "internalType": "address",
          "name": "to",
          "type": "address"
        },
        {
          "internalType": "uint256",
          "name": "tokenId",
          "type": "uint256"
        },
        {
          "internalType": "bytes",
          "name": "_data",
          "type": "bytes"
        }
      ],
      "name": "safeTransferFrom",
      "outputs": [],
      "stateMutability": "nonpayable",
      "type": "function"
    },
    {
      "inputs": [
        {
          "internalType": "address",
          "name": "operator",
          "type": "address"
        },
        {
          "internalType": "bool",
          "name": "approved",
          "type": "bool"
        }
      ],
      "name": "setApprovalForAll",
      "outputs": [],
      "stateMutability": "nonpayable",
      "type": "function"
    },
    {
      "inputs": [
        {
          "internalType": "bytes4",
          "name": "interfaceId",
          "type": "bytes4"
        }
      ],
      "name": "supportsInterface",
      "outputs": [
        {
          "internalType": "bool",
          "name": "",
          "type": "bool"
        }
      ],
      "stateMutability": "view",
      "type": "function",
      "constant": true
    },
    {
      "inputs": [],
      "name": "symbol",
      "outputs": [
        {
          "internalType": "string",
          "name": "",
          "type": "string"
        }
      ],
      "stateMutability": "view",
      "type": "function",
      "constant": true
    },
    {
      "inputs": [
        {
          "internalType": "address",
          "name": "from",
          "type": "address"
        },
        {
          "internalType": "address",
          "name": "to",
          "type": "address"
        },
        {
          "internalType": "uint256",
          "name": "tokenId",
          "type": "uint256"
        }
      ],
      "name": "transferFrom",
      "outputs": [],
      "stateMutability": "nonpayable",
      "type": "function"
    },
    {
      "inputs": [
        {
          "internalType": "address",
          "name": "newOwner",
          "type": "address"
        }
      ],
      "name": "transferOwnership",
      "outputs": [],
      "stateMutability": "nonpayable",
      "type": "function"
    },
    {
      "inputs": [],
      "name": "uri",
      "outputs": [
        {
          "internalType": "string",
          "name": "",
          "type": "string"
        }
      ],
      "stateMutability": "view",
      "type": "function",
      "constant": true
    },
    {
      "inputs": [],
      "name": "tokenCount",
      "outputs": [
        {
          "internalType": "uint256",
          "name": "",
          "type": "uint256"
        }
      ],
      "stateMutability": "view",
      "type": "function",
      "constant": true
    },
    {
      "inputs": [],
      "name": "safeMint",
      "outputs": [
        {
          "internalType": "uint256",
          "name": "",
          "type": "uint256"
        }
      ],
      "stateMutability": "payable",
      "type": "function",
      "payable": true
    },
    {
      "inputs": [
        {
          "internalType": "uint256",
          "name": "tokenId",
          "type": "uint256"
        }
      ],
      "name": "tokenURI",
      "outputs": [
        {
          "internalType": "string",
          "name": "",
          "type": "string"
        }
      ],
      "stateMutability": "view",
      "type": "function",
      "constant": true
    }
  ],
  "bytecode": "0x60806040523480156200001157600080fd5b5060405162003abb38038062003abb833981810160405281019062000037919062000648565b8383816000908051906020019062000051929190620004ec565b5080600190805190602001906200006a929190620004ec565b5050506200008d620000816200014060201b60201c565b6200014860201b60201c565b600160088190555080600b9080519060200190620000ad929190620004ec565b5084600960006101000a81548173ffffffffffffffffffffffffffffffffffffffff021916908373ffffffffffffffffffffffffffffffffffffffff16021790555062000100856200020e60201b60201c565b62000135600960009054906101000a900473ffffffffffffffffffffffffffffffffffffffff1660016200032460201b60201c565b505050505062000aea565b600033905090565b6000600760009054906101000a900473ffffffffffffffffffffffffffffffffffffffff16905081600760006101000a81548173ffffffffffffffffffffffffffffffffffffffff021916908373ffffffffffffffffffffffffffffffffffffffff1602179055508173ffffffffffffffffffffffffffffffffffffffff168173ffffffffffffffffffffffffffffffffffffffff167f8be0079c531659141344cd1fd0a4f28419497f9722a3daafe3b4186f6b6457e060405160405180910390a35050565b6200021e6200014060201b60201c565b73ffffffffffffffffffffffffffffffffffffffff1662000244620004c260201b60201c565b73ffffffffffffffffffffffffffffffffffffffff16146200029d576040517f08c379a0000000000000000000000000000000000000000000000000000000008152600401620002949062000814565b60405180910390fd5b600073ffffffffffffffffffffffffffffffffffffffff168173ffffffffffffffffffffffffffffffffffffffff16141562000310576040517f08c379a00000000000000000000000000000000000000000000000000000000081526004016200030790620007d0565b60405180910390fd5b62000321816200014860201b60201c565b50565b620003346200014060201b60201c565b73ffffffffffffffffffffffffffffffffffffffff168273ffffffffffffffffffffffffffffffffffffffff161415620003a5576040517f08c379a00000000000000000000000000000000000000000000000000000000081526004016200039c90620007f2565b60405180910390fd5b8060056000620003ba6200014060201b60201c565b73ffffffffffffffffffffffffffffffffffffffff1673ffffffffffffffffffffffffffffffffffffffff16815260200190815260200160002060008473ffffffffffffffffffffffffffffffffffffffff1673ffffffffffffffffffffffffffffffffffffffff16815260200190815260200160002060006101000a81548160ff0219169083151502179055508173ffffffffffffffffffffffffffffffffffffffff166200046f6200014060201b60201c565b73ffffffffffffffffffffffffffffffffffffffff167f17307eab39ab6107e8899845ad3d59bd9653f200f220920489ca2b5937696c3183604051620004b69190620007b3565b60405180910390a35050565b6000600760009054906101000a900473ffffffffffffffffffffffffffffffffffffffff16905090565b828054620004fa9062000926565b90600052602060002090601f0160209004810192826200051e57600085556200056a565b82601f106200053957805160ff19168380011785556200056a565b828001600101855582156200056a579182015b82811115620005695782518255916020019190600101906200054c565b5b5090506200057991906200057d565b5090565b5b80821115620005985760008160009055506001016200057e565b5090565b6000620005b3620005ad846200085f565b62000836565b905082815260208101848484011115620005d257620005d1620009f5565b5b620005df848285620008f0565b509392505050565b600081519050620005f88162000ab6565b92915050565b600082601f830112620006165762000615620009f0565b5b8151620006288482602086016200059c565b91505092915050565b600081519050620006428162000ad0565b92915050565b600080600080600060a08688031215620006675762000666620009ff565b5b60006200067788828901620005e7565b955050602086015167ffffffffffffffff8111156200069b576200069a620009fa565b5b620006a988828901620005fe565b945050604086015167ffffffffffffffff811115620006cd57620006cc620009fa565b5b620006db88828901620005fe565b9350506060620006ee8882890162000631565b925050608086015167ffffffffffffffff811115620007125762000711620009fa565b5b6200072088828901620005fe565b9150509295509295909350565b6200073881620008ba565b82525050565b60006200074d60268362000895565b91506200075a8262000a15565b604082019050919050565b60006200077460198362000895565b9150620007818262000a64565b602082019050919050565b60006200079b60208362000895565b9150620007a88262000a8d565b602082019050919050565b6000602082019050620007ca60008301846200072d565b92915050565b60006020820190508181036000830152620007eb816200073e565b9050919050565b600060208201905081810360008301526200080d8162000765565b9050919050565b600060208201905081810360008301526200082f816200078c565b9050919050565b60006200084262000855565b90506200085082826200095c565b919050565b6000604051905090565b600067ffffffffffffffff8211156200087d576200087c620009c1565b5b620008888262000a04565b9050602081019050919050565b600082825260208201905092915050565b6000620008b382620008c6565b9050919050565b60008115159050919050565b600073ffffffffffffffffffffffffffffffffffffffff82169050919050565b6000819050919050565b60005b8381101562000910578082015181840152602081019050620008f3565b8381111562000920576000848401525b50505050565b600060028204905060018216806200093f57607f821691505b6020821081141562000956576200095562000992565b5b50919050565b620009678262000a04565b810181811067ffffffffffffffff82111715620009895762000988620009c1565b5b80604052505050565b7f4e487b7100000000000000000000000000000000000000000000000000000000600052602260045260246000fd5b7f4e487b7100000000000000000000000000000000000000000000000000000000600052604160045260246000fd5b600080fd5b600080fd5b600080fd5b600080fd5b6000601f19601f8301169050919050565b7f4f776e61626c653a206e6577206f776e657220697320746865207a65726f206160008201527f6464726573730000000000000000000000000000000000000000000000000000602082015250565b7f4552433732313a20617070726f766520746f2063616c6c657200000000000000600082015250565b7f4f776e61626c653a2063616c6c6572206973206e6f7420746865206f776e6572600082015250565b62000ac181620008a6565b811462000acd57600080fd5b50565b62000adb81620008e6565b811462000ae757600080fd5b50565b612fc18062000afa6000396000f3fe6080604052600436106101145760003560e01c8063715018a6116100a0578063b88d4fde11610064578063b88d4fde14610392578063c87b56dd146103bb578063e985e9c5146103f8578063eac989f814610435578063f2fde38b1461046057610114565b8063715018a6146102d15780638da5cb5b146102e857806395d89b41146103135780639f181b5e1461033e578063a22cb4651461036957610114565b806323b872dd116100e757806323b872dd146101e757806342842e0e146102105780636352211e146102395780636871ee401461027657806370a082311461029457610114565b806301ffc9a71461011957806306fdde0314610156578063081812fc14610181578063095ea7b3146101be575b600080fd5b34801561012557600080fd5b50610140600480360381019061013b9190611fe4565b610489565b60405161014d9190612419565b60405180910390f35b34801561016257600080fd5b5061016b61056b565b6040516101789190612434565b60405180910390f35b34801561018d57600080fd5b506101a860048036038101906101a3919061203e565b6105fd565b6040516101b591906123b2565b60405180910390f35b3480156101ca57600080fd5b506101e560048036038101906101e09190611fa4565b610682565b005b3480156101f357600080fd5b5061020e60048036038101906102099190611e8e565b61079a565b005b34801561021c57600080fd5b5061023760048036038101906102329190611e8e565b6107fa565b005b34801561024557600080fd5b50610260600480360381019061025b919061203e565b61081a565b60405161026d91906123b2565b60405180910390f35b61027e6108cc565b60405161028b9190612676565b60405180910390f35b3480156102a057600080fd5b506102bb60048036038101906102b69190611e21565b610933565b6040516102c89190612676565b60405180910390f35b3480156102dd57600080fd5b506102e66109eb565b005b3480156102f457600080fd5b506102fd610a73565b60405161030a91906123b2565b60405180910390f35b34801561031f57600080fd5b50610328610a9d565b6040516103359190612434565b60405180910390f35b34801561034a57600080fd5b50610353610b2f565b6040516103609190612676565b60405180910390f35b34801561037557600080fd5b50610390600480360381019061038b9190611f64565b610b40565b005b34801561039e57600080fd5b506103b960048036038101906103b49190611ee1565b610cc1565b005b3480156103c757600080fd5b506103e260048036038101906103dd919061203e565b610d23565b6040516103ef9190612434565b60405180910390f35b34801561040457600080fd5b5061041f600480360381019061041a9190611e4e565b610d35565b60405161042c9190612419565b60405180910390f35b34801561044157600080fd5b5061044a610dc9565b6040516104579190612434565b60405180910390f35b34801561046c57600080fd5b5061048760048036038101906104829190611e21565b610e57565b005b60007f80ac58cd000000000000000000000000000000000000000000000000000000007bffffffffffffffffffffffffffffffffffffffffffffffffffffffff1916827bffffffffffffffffffffffffffffffffffffffffffffffffffffffff1916148061055457507f5b5e139f000000000000000000000000000000000000000000000000000000007bffffffffffffffffffffffffffffffffffffffffffffffffffffffff1916827bffffffffffffffffffffffffffffffffffffffffffffffffffffffff1916145b80610564575061056382610f4f565b5b9050919050565b60606000805461057a9061289b565b80601f01602080910402602001604051908101604052809291908181526020018280546105a69061289b565b80156105f35780601f106105c8576101008083540402835291602001916105f3565b820191906000526020600020905b8154815290600101906020018083116105d657829003601f168201915b5050505050905090565b600061060882610fb9565b610647576040517f08c379a000000000000000000000000000000000000000000000000000000000815260040161063e906125b6565b60405180910390fd5b6004600083815260200190815260200160002060009054906101000a900473ffffffffffffffffffffffffffffffffffffffff169050919050565b600061068d8261081a565b90508073ffffffffffffffffffffffffffffffffffffffff168373ffffffffffffffffffffffffffffffffffffffff1614156106fe576040517f08c379a00000000000000000000000000000000000000000000000000000000081526004016106f590612636565b60405180910390fd5b8073ffffffffffffffffffffffffffffffffffffffff1661071d611025565b73ffffffffffffffffffffffffffffffffffffffff16148061074c575061074b81610746611025565b610d35565b5b61078b576040517f08c379a000000000000000000000000000000000000000000000000000000000815260040161078290612516565b60405180910390fd5b610795838361102d565b505050565b6107ab6107a5611025565b826110e6565b6107ea576040517f08c379a00000000000000000000000000000000000000000000000000000000081526004016107e190612656565b60405180910390fd5b6107f58383836111c4565b505050565b61081583838360405180602001604052806000815250610cc1565b505050565b6000806002600084815260200190815260200160002060009054906101000a900473ffffffffffffffffffffffffffffffffffffffff169050600073ffffffffffffffffffffffffffffffffffffffff168173ffffffffffffffffffffffffffffffffffffffff1614156108c3576040517f08c379a00000000000000000000000000000000000000000000000000000000081526004016108ba90612556565b60405180910390fd5b80915050919050565b6000600c543410156108dd57600080fd5b60006108e9600a611420565b90506108f5600a61142e565b6108ff3382611444565b61092c600960009054906101000a900473ffffffffffffffffffffffffffffffffffffffff166001610b40565b8091505090565b60008073ffffffffffffffffffffffffffffffffffffffff168273ffffffffffffffffffffffffffffffffffffffff1614156109a4576040517f08c379a000000000000000000000000000000000000000000000000000000000815260040161099b90612536565b60405180910390fd5b600360008373ffffffffffffffffffffffffffffffffffffffff1673ffffffffffffffffffffffffffffffffffffffff168152602001908152602001600020549050919050565b6109f3611025565b73ffffffffffffffffffffffffffffffffffffffff16610a11610a73565b73ffffffffffffffffffffffffffffffffffffffff1614610a67576040517f08c379a0000000000000000000000000000000000000000000000000000000008152600401610a5e906125d6565b60405180910390fd5b610a716000611462565b565b6000600760009054906101000a900473ffffffffffffffffffffffffffffffffffffffff16905090565b606060018054610aac9061289b565b80601f0160208091040260200160405190810160405280929190818152602001828054610ad89061289b565b8015610b255780601f10610afa57610100808354040283529160200191610b25565b820191906000526020600020905b815481529060010190602001808311610b0857829003601f168201915b5050505050905090565b6000610b3b600a611420565b905090565b610b48611025565b73ffffffffffffffffffffffffffffffffffffffff168273ffffffffffffffffffffffffffffffffffffffff161415610bb6576040517f08c379a0000000000000000000000000000000000000000000000000000000008152600401610bad906124d6565b60405180910390fd5b8060056000610bc3611025565b73ffffffffffffffffffffffffffffffffffffffff1673ffffffffffffffffffffffffffffffffffffffff16815260200190815260200160002060008473ffffffffffffffffffffffffffffffffffffffff1673ffffffffffffffffffffffffffffffffffffffff16815260200190815260200160002060006101000a81548160ff0219169083151502179055508173ffffffffffffffffffffffffffffffffffffffff16610c70611025565b73ffffffffffffffffffffffffffffffffffffffff167f17307eab39ab6107e8899845ad3d59bd9653f200f220920489ca2b5937696c3183604051610cb59190612419565b60405180910390a35050565b610cd2610ccc611025565b836110e6565b610d11576040517f08c379a0000000000000000000000000000000000000000000000000000000008152600401610d0890612656565b60405180910390fd5b610d1d84848484611528565b50505050565b6060610d2e82611584565b9050919050565b6000600560008473ffffffffffffffffffffffffffffffffffffffff1673ffffffffffffffffffffffffffffffffffffffff16815260200190815260200160002060008373ffffffffffffffffffffffffffffffffffffffff1673ffffffffffffffffffffffffffffffffffffffff16815260200190815260200160002060009054906101000a900460ff16905092915050565b600b8054610dd69061289b565b80601f0160208091040260200160405190810160405280929190818152602001828054610e029061289b565b8015610e4f5780601f10610e2457610100808354040283529160200191610e4f565b820191906000526020600020905b815481529060010190602001808311610e3257829003601f168201915b505050505081565b610e5f611025565b73ffffffffffffffffffffffffffffffffffffffff16610e7d610a73565b73ffffffffffffffffffffffffffffffffffffffff1614610ed3576040517f08c379a0000000000000000000000000000000000000000000000000000000008152600401610eca906125d6565b60405180910390fd5b600073ffffffffffffffffffffffffffffffffffffffff168173ffffffffffffffffffffffffffffffffffffffff161415610f43576040517f08c379a0000000000000000000000000000000000000000000000000000000008152600401610f3a90612476565b60405180910390fd5b610f4c81611462565b50565b60007f01ffc9a7000000000000000000000000000000000000000000000000000000007bffffffffffffffffffffffffffffffffffffffffffffffffffffffff1916827bffffffffffffffffffffffffffffffffffffffffffffffffffffffff1916149050919050565b60008073ffffffffffffffffffffffffffffffffffffffff166002600084815260200190815260200160002060009054906101000a900473ffffffffffffffffffffffffffffffffffffffff1673ffffffffffffffffffffffffffffffffffffffff1614159050919050565b600033905090565b816004600083815260200190815260200160002060006101000a81548173ffffffffffffffffffffffffffffffffffffffff021916908373ffffffffffffffffffffffffffffffffffffffff160217905550808273ffffffffffffffffffffffffffffffffffffffff166110a08361081a565b73ffffffffffffffffffffffffffffffffffffffff167f8c5be1e5ebec7d5bd14f71427d1e84f3dd0314c0f7b2291e5b200ac8c7c3b92560405160405180910390a45050565b60006110f182610fb9565b611130576040517f08c379a0000000000000000000000000000000000000000000000000000000008152600401611127906124f6565b60405180910390fd5b600061113b8361081a565b90508073ffffffffffffffffffffffffffffffffffffffff168473ffffffffffffffffffffffffffffffffffffffff1614806111aa57508373ffffffffffffffffffffffffffffffffffffffff16611192846105fd565b73ffffffffffffffffffffffffffffffffffffffff16145b806111bb57506111ba8185610d35565b5b91505092915050565b8273ffffffffffffffffffffffffffffffffffffffff166111e48261081a565b73ffffffffffffffffffffffffffffffffffffffff161461123a576040517f08c379a0000000000000000000000000000000000000000000000000000000008152600401611231906125f6565b60405180910390fd5b600073ffffffffffffffffffffffffffffffffffffffff168273ffffffffffffffffffffffffffffffffffffffff1614156112aa576040517f08c379a00000000000000000000000000000000000000000000000000000000081526004016112a1906124b6565b60405180910390fd5b6112b58383836116d6565b6112c060008261102d565b6001600360008573ffffffffffffffffffffffffffffffffffffffff1673ffffffffffffffffffffffffffffffffffffffff168152602001908152602001600020600082825461131091906127b1565b925050819055506001600360008473ffffffffffffffffffffffffffffffffffffffff1673ffffffffffffffffffffffffffffffffffffffff1681526020019081526020016000206000828254611367919061272a565b92505081905550816002600083815260200190815260200160002060006101000a81548173ffffffffffffffffffffffffffffffffffffffff021916908373ffffffffffffffffffffffffffffffffffffffff160217905550808273ffffffffffffffffffffffffffffffffffffffff168473ffffffffffffffffffffffffffffffffffffffff167fddf252ad1be2c89b69c2b068fc378daa952ba7f163c4a11628f55a4df523b3ef60405160405180910390a4505050565b600081600001549050919050565b6001816000016000828254019250508190555050565b61145e8282604051806020016040528060008152506116db565b5050565b6000600760009054906101000a900473ffffffffffffffffffffffffffffffffffffffff16905081600760006101000a81548173ffffffffffffffffffffffffffffffffffffffff021916908373ffffffffffffffffffffffffffffffffffffffff1602179055508173ffffffffffffffffffffffffffffffffffffffff168173ffffffffffffffffffffffffffffffffffffffff167f8be0079c531659141344cd1fd0a4f28419497f9722a3daafe3b4186f6b6457e060405160405180910390a35050565b6115338484846111c4565b61153f84848484611736565b61157e576040517f08c379a000000000000000000000000000000000000000000000000000000000815260040161157590612456565b60405180910390fd5b50505050565b606061158f82610fb9565b6115ce576040517f08c379a00000000000000000000000000000000000000000000000000000000081526004016115c590612596565b60405180910390fd5b60006006600084815260200190815260200160002080546115ee9061289b565b80601f016020809104026020016040519081016040528092919081815260200182805461161a9061289b565b80156116675780601f1061163c57610100808354040283529160200191611667565b820191906000526020600020905b81548152906001019060200180831161164a57829003601f168201915b5050505050905060006116786118cd565b905060008151141561168e5781925050506116d1565b6000825111156116c35780826040516020016116ab92919061238e565b604051602081830303815290604052925050506116d1565b6116cc8461195f565b925050505b919050565b505050565b6116e58383611a06565b6116f26000848484611736565b611731576040517f08c379a000000000000000000000000000000000000000000000000000000000815260040161172890612456565b60405180910390fd5b505050565b60006117578473ffffffffffffffffffffffffffffffffffffffff16611bd4565b156118c0578373ffffffffffffffffffffffffffffffffffffffff1663150b7a02611780611025565b8786866040518563ffffffff1660e01b81526004016117a294939291906123cd565b602060405180830381600087803b1580156117bc57600080fd5b505af19250505080156117ed57506040513d601f19601f820116820180604052508101906117ea9190612011565b60015b611870573d806000811461181d576040519150601f19603f3d011682016040523d82523d6000602084013e611822565b606091505b50600081511415611868576040517f08c379a000000000000000000000000000000000000000000000000000000000815260040161185f90612456565b60405180910390fd5b805181602001fd5b63150b7a0260e01b7bffffffffffffffffffffffffffffffffffffffffffffffffffffffff1916817bffffffffffffffffffffffffffffffffffffffffffffffffffffffff1916149150506118c5565b600190505b949350505050565b6060600b80546118dc9061289b565b80601f01602080910402602001604051908101604052809291908181526020018280546119089061289b565b80156119555780601f1061192a57610100808354040283529160200191611955565b820191906000526020600020905b81548152906001019060200180831161193857829003601f168201915b5050505050905090565b606061196a82610fb9565b6119a9576040517f08c379a00000000000000000000000000000000000000000000000000000000081526004016119a090612616565b60405180910390fd5b60006119b36118cd565b905060008151116119d357604051806020016040528060008152506119fe565b806119dd84611be7565b6040516020016119ee92919061238e565b6040516020818303038152906040525b915050919050565b600073ffffffffffffffffffffffffffffffffffffffff168273ffffffffffffffffffffffffffffffffffffffff161415611a76576040517f08c379a0000000000000000000000000000000000000000000000000000000008152600401611a6d90612576565b60405180910390fd5b611a7f81610fb9565b15611abf576040517f08c379a0000000000000000000000000000000000000000000000000000000008152600401611ab690612496565b60405180910390fd5b611acb600083836116d6565b6001600360008473ffffffffffffffffffffffffffffffffffffffff1673ffffffffffffffffffffffffffffffffffffffff1681526020019081526020016000206000828254611b1b919061272a565b92505081905550816002600083815260200190815260200160002060006101000a81548173ffffffffffffffffffffffffffffffffffffffff021916908373ffffffffffffffffffffffffffffffffffffffff160217905550808273ffffffffffffffffffffffffffffffffffffffff16600073ffffffffffffffffffffffffffffffffffffffff167fddf252ad1be2c89b69c2b068fc378daa952ba7f163c4a11628f55a4df523b3ef60405160405180910390a45050565b600080823b905060008111915050919050565b60606000821415611c2f576040518060400160405280600181526020017f30000000000000000000000000000000000000000000000000000000000000008152509050611d43565b600082905060005b60008214611c61578080611c4a906128fe565b915050600a82611c5a9190612780565b9150611c37565b60008167ffffffffffffffff811115611c7d57611c7c612a34565b5b6040519080825280601f01601f191660200182016040528015611caf5781602001600182028036833780820191505090505b5090505b60008514611d3c57600182611cc891906127b1565b9150600a85611cd79190612947565b6030611ce3919061272a565b60f81b818381518110611cf957611cf8612a05565b5b60200101907effffffffffffffffffffffffffffffffffffffffffffffffffffffffffffff1916908160001a905350600a85611d359190612780565b9450611cb3565b8093505050505b919050565b6000611d5b611d56846126b6565b612691565b905082815260208101848484011115611d7757611d76612a68565b5b611d82848285612859565b509392505050565b600081359050611d9981612f2f565b92915050565b600081359050611dae81612f46565b92915050565b600081359050611dc381612f5d565b92915050565b600081519050611dd881612f5d565b92915050565b600082601f830112611df357611df2612a63565b5b8135611e03848260208601611d48565b91505092915050565b600081359050611e1b81612f74565b92915050565b600060208284031215611e3757611e36612a72565b5b6000611e4584828501611d8a565b91505092915050565b60008060408385031215611e6557611e64612a72565b5b6000611e7385828601611d8a565b9250506020611e8485828601611d8a565b9150509250929050565b600080600060608486031215611ea757611ea6612a72565b5b6000611eb586828701611d8a565b9350506020611ec686828701611d8a565b9250506040611ed786828701611e0c565b9150509250925092565b60008060008060808587031215611efb57611efa612a72565b5b6000611f0987828801611d8a565b9450506020611f1a87828801611d8a565b9350506040611f2b87828801611e0c565b925050606085013567ffffffffffffffff811115611f4c57611f4b612a6d565b5b611f5887828801611dde565b91505092959194509250565b60008060408385031215611f7b57611f7a612a72565b5b6000611f8985828601611d8a565b9250506020611f9a85828601611d9f565b9150509250929050565b60008060408385031215611fbb57611fba612a72565b5b6000611fc985828601611d8a565b9250506020611fda85828601611e0c565b9150509250929050565b600060208284031215611ffa57611ff9612a72565b5b600061200884828501611db4565b91505092915050565b60006020828403121561202757612026612a72565b5b600061203584828501611dc9565b91505092915050565b60006020828403121561205457612053612a72565b5b600061206284828501611e0c565b91505092915050565b612074816127e5565b82525050565b612083816127f7565b82525050565b6000612094826126e7565b61209e81856126fd565b93506120ae818560208601612868565b6120b781612a77565b840191505092915050565b60006120cd826126f2565b6120d7818561270e565b93506120e7818560208601612868565b6120f081612a77565b840191505092915050565b6000612106826126f2565b612110818561271f565b9350612120818560208601612868565b80840191505092915050565b600061213960328361270e565b915061214482612a88565b604082019050919050565b600061215c60268361270e565b915061216782612ad7565b604082019050919050565b600061217f601c8361270e565b915061218a82612b26565b602082019050919050565b60006121a260248361270e565b91506121ad82612b4f565b604082019050919050565b60006121c560198361270e565b91506121d082612b9e565b602082019050919050565b60006121e8602c8361270e565b91506121f382612bc7565b604082019050919050565b600061220b60388361270e565b915061221682612c16565b604082019050919050565b600061222e602a8361270e565b915061223982612c65565b604082019050919050565b600061225160298361270e565b915061225c82612cb4565b604082019050919050565b600061227460208361270e565b915061227f82612d03565b602082019050919050565b600061229760318361270e565b91506122a282612d2c565b604082019050919050565b60006122ba602c8361270e565b91506122c582612d7b565b604082019050919050565b60006122dd60208361270e565b91506122e882612dca565b602082019050919050565b600061230060298361270e565b915061230b82612df3565b604082019050919050565b6000612323602f8361270e565b915061232e82612e42565b604082019050919050565b600061234660218361270e565b915061235182612e91565b604082019050919050565b600061236960318361270e565b915061237482612ee0565b604082019050919050565b6123888161284f565b82525050565b600061239a82856120fb565b91506123a682846120fb565b91508190509392505050565b60006020820190506123c7600083018461206b565b92915050565b60006080820190506123e2600083018761206b565b6123ef602083018661206b565b6123fc604083018561237f565b818103606083015261240e8184612089565b905095945050505050565b600060208201905061242e600083018461207a565b92915050565b6000602082019050818103600083015261244e81846120c2565b905092915050565b6000602082019050818103600083015261246f8161212c565b9050919050565b6000602082019050818103600083015261248f8161214f565b9050919050565b600060208201905081810360008301526124af81612172565b9050919050565b600060208201905081810360008301526124cf81612195565b9050919050565b600060208201905081810360008301526124ef816121b8565b9050919050565b6000602082019050818103600083015261250f816121db565b9050919050565b6000602082019050818103600083015261252f816121fe565b9050919050565b6000602082019050818103600083015261254f81612221565b9050919050565b6000602082019050818103600083015261256f81612244565b9050919050565b6000602082019050818103600083015261258f81612267565b9050919050565b600060208201905081810360008301526125af8161228a565b9050919050565b600060208201905081810360008301526125cf816122ad565b9050919050565b600060208201905081810360008301526125ef816122d0565b9050919050565b6000602082019050818103600083015261260f816122f3565b9050919050565b6000602082019050818103600083015261262f81612316565b9050919050565b6000602082019050818103600083015261264f81612339565b9050919050565b6000602082019050818103600083015261266f8161235c565b9050919050565b600060208201905061268b600083018461237f565b92915050565b600061269b6126ac565b90506126a782826128cd565b919050565b6000604051905090565b600067ffffffffffffffff8211156126d1576126d0612a34565b5b6126da82612a77565b9050602081019050919050565b600081519050919050565b600081519050919050565b600082825260208201905092915050565b600082825260208201905092915050565b600081905092915050565b60006127358261284f565b91506127408361284f565b9250827fffffffffffffffffffffffffffffffffffffffffffffffffffffffffffffffff0382111561277557612774612978565b5b828201905092915050565b600061278b8261284f565b91506127968361284f565b9250826127a6576127a56129a7565b5b828204905092915050565b60006127bc8261284f565b91506127c78361284f565b9250828210156127da576127d9612978565b5b828203905092915050565b60006127f08261282f565b9050919050565b60008115159050919050565b60007fffffffff0000000000000000000000000000000000000000000000000000000082169050919050565b600073ffffffffffffffffffffffffffffffffffffffff82169050919050565b6000819050919050565b82818337600083830152505050565b60005b8381101561288657808201518184015260208101905061286b565b83811115612895576000848401525b50505050565b600060028204905060018216806128b357607f821691505b602082108114156128c7576128c66129d6565b5b50919050565b6128d682612a77565b810181811067ffffffffffffffff821117156128f5576128f4612a34565b5b80604052505050565b60006129098261284f565b91507fffffffffffffffffffffffffffffffffffffffffffffffffffffffffffffffff82141561293c5761293b612978565b5b600182019050919050565b60006129528261284f565b915061295d8361284f565b92508261296d5761296c6129a7565b5b828206905092915050565b7f4e487b7100000000000000000000000000000000000000000000000000000000600052601160045260246000fd5b7f4e487b7100000000000000000000000000000000000000000000000000000000600052601260045260246000fd5b7f4e487b7100000000000000000000000000000000000000000000000000000000600052602260045260246000fd5b7f4e487b7100000000000000000000000000000000000000000000000000000000600052603260045260246000fd5b7f4e487b7100000000000000000000000000000000000000000000000000000000600052604160045260246000fd5b600080fd5b600080fd5b600080fd5b600080fd5b6000601f19601f8301169050919050565b7f4552433732313a207472616e7366657220746f206e6f6e20455243373231526560008201527f63656976657220696d706c656d656e7465720000000000000000000000000000602082015250565b7f4f776e61626c653a206e6577206f776e657220697320746865207a65726f206160008201527f6464726573730000000000000000000000000000000000000000000000000000602082015250565b7f4552433732313a20746f6b656e20616c7265616479206d696e74656400000000600082015250565b7f4552433732313a207472616e7366657220746f20746865207a65726f2061646460008201527f7265737300000000000000000000000000000000000000000000000000000000602082015250565b7f4552433732313a20617070726f766520746f2063616c6c657200000000000000600082015250565b7f4552433732313a206f70657261746f7220717565727920666f72206e6f6e657860008201527f697374656e7420746f6b656e0000000000000000000000000000000000000000602082015250565b7f4552433732313a20617070726f76652063616c6c6572206973206e6f74206f7760008201527f6e6572206e6f7220617070726f76656420666f7220616c6c0000000000000000602082015250565b7f4552433732313a2062616c616e636520717565727920666f7220746865207a6560008201527f726f206164647265737300000000000000000000000000000000000000000000602082015250565b7f4552433732313a206f776e657220717565727920666f72206e6f6e657869737460008201527f656e7420746f6b656e0000000000000000000000000000000000000000000000602082015250565b7f4552433732313a206d696e7420746f20746865207a65726f2061646472657373600082015250565b7f45524337323155524953746f726167653a2055524920717565727920666f722060008201527f6e6f6e6578697374656e7420746f6b656e000000000000000000000000000000602082015250565b7f4552433732313a20617070726f76656420717565727920666f72206e6f6e657860008201527f697374656e7420746f6b656e0000000000000000000000000000000000000000602082015250565b7f4f776e61626c653a2063616c6c6572206973206e6f7420746865206f776e6572600082015250565b7f4552433732313a207472616e73666572206f6620746f6b656e2074686174206960008201527f73206e6f74206f776e0000000000000000000000000000000000000000000000602082015250565b7f4552433732314d657461646174613a2055524920717565727920666f72206e6f60008201527f6e6578697374656e7420746f6b656e0000000000000000000000000000000000602082015250565b7f4552433732313a20617070726f76616c20746f2063757272656e74206f776e6560008201527f7200000000000000000000000000000000000000000000000000000000000000602082015250565b7f4552433732313a207472616e736665722063616c6c6572206973206e6f74206f60008201527f776e6572206e6f7220617070726f766564000000000000000000000000000000602082015250565b612f38816127e5565b8114612f4357600080fd5b50565b612f4f816127f7565b8114612f5a57600080fd5b50565b612f6681612803565b8114612f7157600080fd5b50565b612f7d8161284f565b8114612f8857600080fd5b5056fea26469706673582212202db6a7263a8af45d8d364fbe54c6ff4f24173eb548694fea79be4b75f19af79f64736f6c63430008050033",
  "immutableReferences": {},
  "source": "// SPDX-License-Identifier: MIT\npragma solidity ^0.8.5;\n\nimport \"@openzeppelin/contracts/token/ERC721/ERC721.sol\";\nimport \"@openzeppelin/contracts/token/ERC721/extensions/ERC721URIStorage.sol\";\nimport \"@openzeppelin/contracts/access/Ownable.sol\";\nimport \"@openzeppelin/contracts/utils/Counters.sol\";\nimport \"@openzeppelin/contracts/token/ERC721/IERC721Receiver.sol\";\nimport \"@openzeppelin/contracts/security/ReentrancyGuard.sol\";\n\ncontract BlockchainArt is ERC721, ERC721URIStorage, Ownable, ReentrancyGuard {\n    using Counters for Counters.Counter;\n    address contractOwner;\n    Counters.Counter private _tokenIdCounter;\n    string public uri;\n    uint artPrice;\n\n    event Minted(address sender, address to, address approval);\n\n\n    constructor(address owner, string memory name, string memory symbol, uint price, string memory uri_) ERC721(name, symbol) {\n        uri = uri_;\n        contractOwner = owner;\n        transferOwnership(owner);\n        setApprovalForAll(contractOwner, true);\n\n        // require(owner == this.owner());\n    }\n\n    function _baseURI() internal view override returns (string memory) {\n        return uri;\n    }\n\n    function tokenCount() public view returns (uint) {\n        return _tokenIdCounter.current();\n    }\n\n    function safeMint() payable public returns (uint) {\n        require(msg.value >= artPrice);\n\n        uint tokenId = _tokenIdCounter.current();\n        _tokenIdCounter.increment();\n\n        _safeMint(msg.sender, tokenId);\n        setApprovalForAll(contractOwner, true);\n\n        return tokenId;\n    }\n    // function safeMint() public onlyOwner returns (uint) {\n    //     uint tokenId = _tokenIdCounter.current();\n    //     _tokenIdCounter.increment();\n    //     setApprovalForAll(contractOwner, true);\n    //     _safeMint(contractOwner, tokenId);\n    //     return tokenId;\n    // }\n    // function safeMintFor(address payable _to) public onlyOwner returns (uint) {\n    //     uint tokenId = _tokenIdCounter.current();\n    //     _tokenIdCounter.increment();\n    //     _safeMint(_to, tokenId);\n    //     emit Minted(msg.sender, _to, contractOwner);\n    //     return tokenId;\n    // }\n\n    // The following functions are overrides required by Solidity.\n\n    function _burn(uint256 tokenId) internal override(ERC721, ERC721URIStorage) {\n        super._burn(tokenId);\n    }\n\n    function tokenURI(uint256 tokenId)\n        public\n        view\n        override(ERC721, ERC721URIStorage)\n        returns (string memory)\n    {\n        return super.tokenURI(tokenId);\n    }\n}\n",
  "sourcePath": "/Users/pablo/Work/Projects/blockchain-developer-bootcamp-final-project/contracts/BlockchainArt.sol",
  "compiler": {
    "name": "solc",
    "version": "0.8.5+commit.a4f2e591.Emscripten.clang"
  },
  "schemaVersion": "3.4.3",
  "updatedAt": "2021-11-25T16:07:43.716Z",
  "networkType": "ethereum",
  "devdoc": {
    "kind": "dev",
    "methods": {
      "approve(address,uint256)": {
        "details": "See {IERC721-approve}."
      },
      "balanceOf(address)": {
        "details": "See {IERC721-balanceOf}."
      },
      "getApproved(uint256)": {
        "details": "See {IERC721-getApproved}."
      },
      "isApprovedForAll(address,address)": {
        "details": "See {IERC721-isApprovedForAll}."
      },
      "name()": {
        "details": "See {IERC721Metadata-name}."
      },
      "owner()": {
        "details": "Returns the address of the current owner."
      },
      "ownerOf(uint256)": {
        "details": "See {IERC721-ownerOf}."
      },
      "renounceOwnership()": {
        "details": "Leaves the contract without owner. It will not be possible to call `onlyOwner` functions anymore. Can only be called by the current owner. NOTE: Renouncing ownership will leave the contract without an owner, thereby removing any functionality that is only available to the owner."
      },
      "safeTransferFrom(address,address,uint256)": {
        "details": "See {IERC721-safeTransferFrom}."
      },
      "safeTransferFrom(address,address,uint256,bytes)": {
        "details": "See {IERC721-safeTransferFrom}."
      },
      "setApprovalForAll(address,bool)": {
        "details": "See {IERC721-setApprovalForAll}."
      },
      "supportsInterface(bytes4)": {
        "details": "See {IERC165-supportsInterface}."
      },
      "symbol()": {
        "details": "See {IERC721Metadata-symbol}."
      },
      "transferFrom(address,address,uint256)": {
        "details": "See {IERC721-transferFrom}."
      },
      "transferOwnership(address)": {
        "details": "Transfers ownership of the contract to a new account (`newOwner`). Can only be called by the current owner."
      }
    },
    "version": 1
  },
  "userdoc": {
    "kind": "user",
    "methods": {},
    "version": 1
  }
}