{
  "contractName": "Participation",
  "abi": [
    {
      "inputs": [],
      "stateMutability": "nonpayable",
      "type": "constructor"
    },
    {
      "inputs": [
        {
          "internalType": "string",
          "name": "activityName",
          "type": "string"
        }
      ],
      "name": "addActivity",
      "outputs": [
        {
          "internalType": "uint256",
          "name": "",
          "type": "uint256"
        }
      ],
      "stateMutability": "nonpayable",
      "type": "function"
    },
    {
      "inputs": [
        {
          "internalType": "string",
          "name": "activityName",
          "type": "string"
        },
        {
          "internalType": "uint256",
          "name": "startTime",
          "type": "uint256"
        },
        {
          "internalType": "uint256",
          "name": "endTime",
          "type": "uint256"
        }
      ],
      "name": "addActivity2",
      "outputs": [
        {
          "internalType": "uint256",
          "name": "",
          "type": "uint256"
        }
      ],
      "stateMutability": "nonpayable",
      "type": "function"
    }
  ],
  "bytecode": "0x608060405234801561001057600080fd5b5033600160006101000a81548173ffffffffffffffffffffffffffffffffffffffff021916908373ffffffffffffffffffffffffffffffffffffffff16021790555061066e806100616000396000f3fe608060405234801561001057600080fd5b50600436106100365760003560e01c80630f80aa371461003b578063b841e45a1461006b575b600080fd5b610055600480360381019061005091906103ae565b61009b565b604051610062919061042c565b60405180910390f35b61008560048036038101906100809190610365565b61019d565b604051610092919061042c565b60405180910390f35b60008060016000546100ad919061049d565b905060006040518060a00160405280838152602001878152602001868152602001858152602001428152509050806005600084815260200190815260200160002060008201518160000155602082015181600101908051906020019061011492919061023d565b50604082015181600201556060820151816003015560808201518160040155905050336002600084815260200190815260200160002060006101000a81548173ffffffffffffffffffffffffffffffffffffffff021916908373ffffffffffffffffffffffffffffffffffffffff16021790555081600081905550600054925050509392505050565b60008060016000546101af919061049d565b9050336002600083815260200190815260200160002060006101000a81548173ffffffffffffffffffffffffffffffffffffffff021916908373ffffffffffffffffffffffffffffffffffffffff1602179055508260036000838152602001908152602001600020908051906020019061022a92919061023d565b5080600081905550600054915050919050565b8280546102499061050c565b90600052602060002090601f01602090048101928261026b57600085556102b2565b82601f1061028457805160ff19168380011785556102b2565b828001600101855582156102b2579182015b828111156102b1578251825591602001919060010190610296565b5b5090506102bf91906102c3565b5090565b5b808211156102dc5760008160009055506001016102c4565b5090565b60006102f36102ee8461046c565b610447565b90508281526020810184848401111561030f5761030e610601565b5b61031a8482856104fd565b509392505050565b600082601f830112610337576103366105fc565b5b81356103478482602086016102e0565b91505092915050565b60008135905061035f81610621565b92915050565b60006020828403121561037b5761037a61060b565b5b600082013567ffffffffffffffff81111561039957610398610606565b5b6103a584828501610322565b91505092915050565b6000806000606084860312156103c7576103c661060b565b5b600084013567ffffffffffffffff8111156103e5576103e4610606565b5b6103f186828701610322565b935050602061040286828701610350565b925050604061041386828701610350565b9150509250925092565b610426816104f3565b82525050565b6000602082019050610441600083018461041d565b92915050565b6000610451610462565b905061045d828261053e565b919050565b6000604051905090565b600067ffffffffffffffff821115610487576104866105cd565b5b61049082610610565b9050602081019050919050565b60006104a8826104f3565b91506104b3836104f3565b9250827fffffffffffffffffffffffffffffffffffffffffffffffffffffffffffffffff038211156104e8576104e761056f565b5b828201905092915050565b6000819050919050565b82818337600083830152505050565b6000600282049050600182168061052457607f821691505b602082108114156105385761053761059e565b5b50919050565b61054782610610565b810181811067ffffffffffffffff82111715610566576105656105cd565b5b80604052505050565b7f4e487b7100000000000000000000000000000000000000000000000000000000600052601160045260246000fd5b7f4e487b7100000000000000000000000000000000000000000000000000000000600052602260045260246000fd5b7f4e487b7100000000000000000000000000000000000000000000000000000000600052604160045260246000fd5b600080fd5b600080fd5b600080fd5b600080fd5b6000601f19601f8301169050919050565b61062a816104f3565b811461063557600080fd5b5056fea2646970667358221220ac356e7ba82350ba7dc9f8cb1f6d2d7e51d0434ac9e91e230e0e9ab388074dcf64736f6c63430008050033",
  "immutableReferences": {},
  "source": "// SPDX-License-Identifier: MIT\npragma solidity ^0.8.5;\n\ncontract Participation {\n\n    uint private activityId;\n    address owner;\n    mapping(uint => address) private activityOwners;\n    mapping(uint => string) private activityNames;\n    mapping(uint => address[]) private activityParticipants;\n    mapping(uint => Activity) private activities;\n\n    struct Activity {\n        uint id;\n        string name;\n        uint startTime;\n        uint endTime;\n        uint createdTime;\n    }\n\n    modifier onlyContractOwner(uint activityId_) {\n        require(msg.sender == owner);\n        _;\n    }\n    modifier onlyActivityOwner(uint activityId_) {\n        require(msg.sender == activityOwners[activityId_]);\n        _;\n    }\n\n    constructor() {\n        owner = msg.sender;\n    }\n\n    function addActivity(string memory activityName) public returns (uint) {\n        uint activityId_ = activityId + 1;\n        activityOwners[activityId_] = msg.sender;\n        activityNames[activityId_] = activityName;\n        activityId = activityId_;\n        return activityId;\n    }\n\n    function addActivity2(string memory activityName, uint startTime, uint endTime) public returns (uint) {\n        uint activityId_ = activityId + 1;\n\n        Activity memory activity = Activity({\n            id: activityId_,\n            name: activityName,\n            startTime: startTime,\n            endTime: endTime,\n            createdTime: block.timestamp\n        });\n\n        activities[activityId_]     = activity;\n        activityOwners[activityId_] = msg.sender;\n\n        activityId = activityId_;\n        return activityId;\n    }\n\n\n\n}",
  "sourcePath": "/Users/pablo/Work/Projects/nftart/contracts/Participation.sol",
  "compiler": {
    "name": "solc",
    "version": "0.8.5+commit.a4f2e591.Emscripten.clang"
  },
  "schemaVersion": "3.4.3",
  "updatedAt": "2021-11-25T11:48:28.406Z",
  "devdoc": {
    "kind": "dev",
    "methods": {},
    "version": 1
  },
  "userdoc": {
    "kind": "user",
    "methods": {},
    "version": 1
  }
}