{
  "contractName": "Shop",
  "abi": [
    {
      "inputs": [],
      "stateMutability": "nonpayable",
      "type": "constructor"
    },
    {
      "anonymous": false,
      "inputs": [
        {
          "indexed": true,
          "internalType": "address",
          "name": "nftContract",
          "type": "address"
        },
        {
          "indexed": true,
          "internalType": "address",
          "name": "buyer",
          "type": "address"
        },
        {
          "indexed": true,
          "internalType": "uint256",
          "name": "tokenId",
          "type": "uint256"
        }
      ],
      "name": "NFTBought",
      "type": "event"
    },
    {
      "anonymous": false,
      "inputs": [
        {
          "indexed": true,
          "internalType": "bytes32",
          "name": "artId",
          "type": "bytes32"
        },
        {
          "indexed": true,
          "internalType": "address",
          "name": "nftcontract",
          "type": "address"
        },
        {
          "indexed": true,
          "internalType": "uint256",
          "name": "tokenId",
          "type": "uint256"
        },
        {
          "indexed": false,
          "internalType": "address",
          "name": "sender",
          "type": "address"
        }
      ],
      "name": "NFTListed",
      "type": "event"
    },
    {
      "anonymous": false,
      "inputs": [
        {
          "indexed": true,
          "internalType": "address",
          "name": "nftContract",
          "type": "address"
        }
      ],
      "name": "NFTMinted",
      "type": "event"
    },
    {
      "anonymous": false,
      "inputs": [
        {
          "indexed": false,
          "internalType": "bytes32",
          "name": "artId",
          "type": "bytes32"
        }
      ],
      "name": "NFTToBeBought",
      "type": "event"
    },
    {
      "anonymous": false,
      "inputs": [
        {
          "indexed": true,
          "internalType": "address",
          "name": "contractOwner",
          "type": "address"
        }
      ],
      "name": "ShopCreated",
      "type": "event"
    },
    {
      "inputs": [
        {
          "internalType": "bytes32",
          "name": "artId",
          "type": "bytes32"
        }
      ],
      "name": "buyItem",
      "outputs": [],
      "stateMutability": "payable",
      "type": "function",
      "payable": true
    },
    {
      "inputs": [
        {
          "internalType": "address",
          "name": "nftContract",
          "type": "address"
        },
        {
          "internalType": "uint256",
          "name": "tokenId",
          "type": "uint256"
        },
        {
          "internalType": "uint256",
          "name": "price",
          "type": "uint256"
        },
        {
          "internalType": "string",
          "name": "title",
          "type": "string"
        }
      ],
      "name": "listItem",
      "outputs": [
        {
          "internalType": "bytes32",
          "name": "",
          "type": "bytes32"
        }
      ],
      "stateMutability": "nonpayable",
      "type": "function"
    },
    {
      "inputs": [],
      "name": "fetchListedItems",
      "outputs": [
        {
          "components": [
            {
              "internalType": "bytes32",
              "name": "artId",
              "type": "bytes32"
            },
            {
              "internalType": "address",
              "name": "nftContract",
              "type": "address"
            },
            {
              "internalType": "address",
              "name": "currentOwner",
              "type": "address"
            },
            {
              "internalType": "uint256",
              "name": "tokenId",
              "type": "uint256"
            },
            {
              "internalType": "string",
              "name": "title",
              "type": "string"
            },
            {
              "internalType": "uint256",
              "name": "price",
              "type": "uint256"
            },
            {
              "internalType": "bool",
              "name": "forSale",
              "type": "bool"
            }
          ],
          "internalType": "struct Shop.ArtItem[]",
          "name": "",
          "type": "tuple[]"
        }
      ],
      "stateMutability": "view",
      "type": "function",
      "constant": true
    },
    {
      "inputs": [],
      "name": "owner",
      "outputs": [
        {
          "internalType": "address",
          "name": "",
          "type": "address"
        }
      ],
      "stateMutability": "view",
      "type": "function",
      "constant": true
    },
    {
      "inputs": [
        {
          "internalType": "address",
          "name": "",
          "type": "address"
        },
        {
          "internalType": "address",
          "name": "",
          "type": "address"
        },
        {
          "internalType": "uint256",
          "name": "",
          "type": "uint256"
        },
        {
          "internalType": "bytes",
          "name": "",
          "type": "bytes"
        }
      ],
      "name": "onERC721Received",
      "outputs": [
        {
          "internalType": "bytes4",
          "name": "",
          "type": "bytes4"
        }
      ],
      "stateMutability": "nonpayable",
      "type": "function"
    }
  ],
  "bytecode": "0x608060405234801561001057600080fd5b50600160008190555033600160006101000a81548173ffffffffffffffffffffffffffffffffffffffff021916908373ffffffffffffffffffffffffffffffffffffffff160217905550600160009054906101000a900473ffffffffffffffffffffffffffffffffffffffff1673ffffffffffffffffffffffffffffffffffffffff167f60b12a29ccebdbc5e298f82f8a9409af4cf09db9b22631697ce14b6e17144ccc60405160405180910390a2611c45806100ce6000396000f3fe60806040526004361061004a5760003560e01c8063150b7a021461004f5780635095709e1461008c5780638da5cb5b146100c9578063cfd31e2c146100f4578063f169bf071461011f575b600080fd5b34801561005b57600080fd5b50610076600480360381019061007191906110bf565b61013b565b60405161008391906115de565b60405180910390f35b34801561009857600080fd5b506100b360048036038101906100ae9190611142565b61014f565b6040516100c091906115c3565b60405180910390f35b3480156100d557600080fd5b506100de610364565b6040516100eb919061154f565b60405180910390f35b34801561010057600080fd5b5061010961038e565b60405161011691906115a1565b60405180910390f35b610139600480360381019061013491906111c5565b61065d565b005b600063150b7a0260e01b9050949350505050565b6000808573ffffffffffffffffffffffffffffffffffffffff16636352211e866040518263ffffffff1660e01b815260040161018b91906116d9565b60206040518083038186803b1580156101a357600080fd5b505afa1580156101b7573d6000803e3d6000fd5b505050506040513d601f19601f820116820180604052508101906101db9190611092565b90503373ffffffffffffffffffffffffffffffffffffffff168173ffffffffffffffffffffffffffffffffffffffff161461024b576040517f08c379a000000000000000000000000000000000000000000000000000000000815260040161024290611679565b60405180910390fd5b60006102578787610aa9565b90506000600460008381526020019081526020016000209050600015158160060160009054906101000a900460ff161515146102c8576040517f08c379a00000000000000000000000000000000000000000000000000000000081526004016102bf906116b9565b60405180910390fd5b6102d68289858a898b610adc565b80600301548160010160009054906101000a900473ffffffffffffffffffffffffffffffffffffffff1673ffffffffffffffffffffffffffffffffffffffff1682600001547f5673291e37a655432db2bb3ab1226d7872e744c1f203286af08aee479b50b1913360405161034a919061154f565b60405180910390a480600001549350505050949350505050565b6000600160009054906101000a900473ffffffffffffffffffffffffffffffffffffffff16905090565b6060600061039c6009610cc6565b6103a66007610cc6565b6103b091906117ec565b67ffffffffffffffff8111156103c9576103c8611a47565b5b60405190808252806020026020018201604052801561040257816020015b6103ef610e0d565b8152602001906001900390816103e75790505b5090506000805b6104136007610cc6565b81101561065457600460006006838154811061043257610431611a18565b5b9060005260206000200154815260200190815260200160002060060160009054906101000a900460ff161561064157600460006006838154811061047957610478611a18565b5b906000526020600020015481526020019081526020016000206040518060e0016040529081600082015481526020016001820160009054906101000a900473ffffffffffffffffffffffffffffffffffffffff1673ffffffffffffffffffffffffffffffffffffffff1673ffffffffffffffffffffffffffffffffffffffff1681526020016002820160009054906101000a900473ffffffffffffffffffffffffffffffffffffffff1673ffffffffffffffffffffffffffffffffffffffff1673ffffffffffffffffffffffffffffffffffffffff1681526020016003820154815260200160048201805461056d906118e0565b80601f0160208091040260200160405190810160405280929190818152602001828054610599906118e0565b80156105e65780601f106105bb576101008083540402835291602001916105e6565b820191906000526020600020905b8154815290600101906020018083116105c957829003601f168201915b50505050508152602001600582015481526020016006820160009054906101000a900460ff16151515158152505083838151811061062757610626611a18565b5b6020026020010181905250818061063d90611943565b9250505b808061064c90611943565b915050610409565b50819250505090565b600060046000838152602001908152602001600020905060008160010160009054906101000a900473ffffffffffffffffffffffffffffffffffffffff1673ffffffffffffffffffffffffffffffffffffffff16636352211e83600301546040518263ffffffff1660e01b81526004016106d791906116d9565b60206040518083038186803b1580156106ef57600080fd5b505afa158015610703573d6000803e3d6000fd5b505050506040513d601f19601f820116820180604052508101906107279190611092565b905060008260030154905060008360010160009054906101000a900473ffffffffffffffffffffffffffffffffffffffff1690503373ffffffffffffffffffffffffffffffffffffffff168373ffffffffffffffffffffffffffffffffffffffff1614156107ca576040517f08c379a00000000000000000000000000000000000000000000000000000000081526004016107c1906115f9565b60405180910390fd5b8360060160009054906101000a900460ff1661081b576040517f08c379a000000000000000000000000000000000000000000000000000000000815260040161081290611659565b60405180910390fd5b8360050154341015610862576040517f08c379a000000000000000000000000000000000000000000000000000000000815260040161085990611639565b60405180910390fd5b600073ffffffffffffffffffffffffffffffffffffffff163373ffffffffffffffffffffffffffffffffffffffff1614156108d2576040517f08c379a00000000000000000000000000000000000000000000000000000000081526004016108c990611699565b60405180910390fd5b600073ffffffffffffffffffffffffffffffffffffffff168460020160009054906101000a900473ffffffffffffffffffffffffffffffffffffffff1673ffffffffffffffffffffffffffffffffffffffff161415610966576040517f08c379a000000000000000000000000000000000000000000000000000000000815260040161095d90611619565b60405180910390fd5b61096f85610cd4565b8073ffffffffffffffffffffffffffffffffffffffff166342842e0e8433856040518463ffffffff1660e01b81526004016109ac9392919061156a565b600060405180830381600087803b1580156109c657600080fd5b505af11580156109da573d6000803e3d6000fd5b505050508273ffffffffffffffffffffffffffffffffffffffff1634604051610a029061153a565b60006040518083038185875af1925050503d8060008114610a3f576040519150601f19603f3d011682016040523d82523d6000602084013e610a44565b606091505b505050813373ffffffffffffffffffffffffffffffffffffffff168273ffffffffffffffffffffffffffffffffffffffff167fcd1344421cbf20fee1675696dc29224085bc8d25b5d4e70fc4fb7a68c76af49460405160405180910390a45050505050565b60008282604051602001610abe92919061150e565b60405160208183030381529060405280519060200120905092915050565b610ae66007610df7565b600015156004600088815260200190815260200160002060060160009054906101000a900460ff1615151415610cbe576040518060e001604052808781526020018673ffffffffffffffffffffffffffffffffffffffff1681526020018573ffffffffffffffffffffffffffffffffffffffff16815260200184815260200183815260200182815260200160011515815250600460008881526020019081526020016000206000820151816000015560208201518160010160006101000a81548173ffffffffffffffffffffffffffffffffffffffff021916908373ffffffffffffffffffffffffffffffffffffffff16021790555060408201518160020160006101000a81548173ffffffffffffffffffffffffffffffffffffffff021916908373ffffffffffffffffffffffffffffffffffffffff160217905550606082015181600301556080820151816004019080519060200190610c49929190610e7b565b5060a0820151816005015560c08201518160060160006101000a81548160ff021916908315150217905550905050600680549050600560008881526020019081526020016000208190555060068690806001815401808255809150506001900390600052602060002001600090919091909150555b505050505050565b600081600001549050919050565b610cde6009610df7565b6004600082815260200190815260200160002060060160009054906101000a900460ff1615610df457600460008281526020019081526020016000206000808201600090556001820160006101000a81549073ffffffffffffffffffffffffffffffffffffffff02191690556002820160006101000a81549073ffffffffffffffffffffffffffffffffffffffff02191690556003820160009055600482016000610d899190610f01565b60058201600090556006820160006101000a81549060ff021916905550506006600560008381526020019081526020016000205481548110610dce57610dcd611a18565b5b906000526020600020016000905560056000828152602001908152602001600020600090555b50565b6001816000016000828254019250508190555050565b6040518060e0016040528060008019168152602001600073ffffffffffffffffffffffffffffffffffffffff168152602001600073ffffffffffffffffffffffffffffffffffffffff1681526020016000815260200160608152602001600081526020016000151581525090565b828054610e87906118e0565b90600052602060002090601f016020900481019282610ea95760008555610ef0565b82601f10610ec257805160ff1916838001178555610ef0565b82800160010185558215610ef0579182015b82811115610eef578251825591602001919060010190610ed4565b5b509050610efd9190610f41565b5090565b508054610f0d906118e0565b6000825580601f10610f1f5750610f3e565b601f016020900490600052602060002090810190610f3d9190610f41565b5b50565b5b80821115610f5a576000816000905550600101610f42565b5090565b6000610f71610f6c84611719565b6116f4565b905082815260208101848484011115610f8d57610f8c611a7b565b5b610f9884828561189e565b509392505050565b6000610fb3610fae8461174a565b6116f4565b905082815260208101848484011115610fcf57610fce611a7b565b5b610fda84828561189e565b509392505050565b600081359050610ff181611bca565b92915050565b60008151905061100681611bca565b92915050565b60008135905061101b81611be1565b92915050565b600082601f83011261103657611035611a76565b5b8135611046848260208601610f5e565b91505092915050565b600082601f83011261106457611063611a76565b5b8135611074848260208601610fa0565b91505092915050565b60008135905061108c81611bf8565b92915050565b6000602082840312156110a8576110a7611a85565b5b60006110b684828501610ff7565b91505092915050565b600080600080608085870312156110d9576110d8611a85565b5b60006110e787828801610fe2565b94505060206110f887828801610fe2565b93505060406111098782880161107d565b925050606085013567ffffffffffffffff81111561112a57611129611a80565b5b61113687828801611021565b91505092959194509250565b6000806000806080858703121561115c5761115b611a85565b5b600061116a87828801610fe2565b945050602061117b8782880161107d565b935050604061118c8782880161107d565b925050606085013567ffffffffffffffff8111156111ad576111ac611a80565b5b6111b98782880161104f565b91505092959194509250565b6000602082840312156111db576111da611a85565b5b60006111e98482850161100c565b91505092915050565b60006111fe838361143d565b905092915050565b61120f81611820565b82525050565b61121e81611820565b82525050565b61123561123082611820565b61198c565b82525050565b60006112468261178b565b61125081856117ae565b9350836020820285016112628561177b565b8060005b8581101561129e578484038952815161127f85826111f2565b945061128a836117a1565b925060208a01995050600181019050611266565b50829750879550505050505092915050565b6112b981611832565b82525050565b6112c88161183e565b82525050565b6112d78161183e565b82525050565b6112e681611848565b82525050565b60006112f782611796565b61130181856117ca565b93506113118185602086016118ad565b61131a81611a8a565b840191505092915050565b60006113326019836117db565b915061133d82611aa8565b602082019050919050565b60006113556011836117db565b915061136082611ad1565b602082019050919050565b60006113786015836117db565b915061138382611afa565b602082019050919050565b600061139b6010836117db565b91506113a682611b23565b602082019050919050565b60006113be6013836117db565b91506113c982611b4c565b602082019050919050565b60006113e16000836117bf565b91506113ec82611b75565b600082019050919050565b60006114046012836117db565b915061140f82611b78565b602082019050919050565b60006114276013836117db565b915061143282611ba1565b602082019050919050565b600060e08301600083015161145560008601826112bf565b5060208301516114686020860182611206565b50604083015161147b6040860182611206565b50606083015161148e60608601826114d9565b50608083015184820360808601526114a682826112ec565b91505060a08301516114bb60a08601826114d9565b5060c08301516114ce60c08601826112b0565b508091505092915050565b6114e281611894565b82525050565b6114f181611894565b82525050565b61150861150382611894565b6119b0565b82525050565b600061151a8285611224565b60148201915061152a82846114f7565b6020820191508190509392505050565b6000611545826113d4565b9150819050919050565b60006020820190506115646000830184611215565b92915050565b600060608201905061157f6000830186611215565b61158c6020830185611215565b61159960408301846114e8565b949350505050565b600060208201905081810360008301526115bb818461123b565b905092915050565b60006020820190506115d860008301846112ce565b92915050565b60006020820190506115f360008301846112dd565b92915050565b6000602082019050818103600083015261161281611325565b9050919050565b6000602082019050818103600083015261163281611348565b9050919050565b600060208201905081810360008301526116528161136b565b9050919050565b600060208201905081810360008301526116728161138e565b9050919050565b60006020820190508181036000830152611692816113b1565b9050919050565b600060208201905081810360008301526116b2816113f7565b9050919050565b600060208201905081810360008301526116d28161141a565b9050919050565b60006020820190506116ee60008301846114e8565b92915050565b60006116fe61170f565b905061170a8282611912565b919050565b6000604051905090565b600067ffffffffffffffff82111561173457611733611a47565b5b61173d82611a8a565b9050602081019050919050565b600067ffffffffffffffff82111561176557611764611a47565b5b61176e82611a8a565b9050602081019050919050565b6000819050602082019050919050565b600081519050919050565b600081519050919050565b6000602082019050919050565b600082825260208201905092915050565b600081905092915050565b600082825260208201905092915050565b600082825260208201905092915050565b60006117f782611894565b915061180283611894565b925082821015611815576118146119ba565b5b828203905092915050565b600061182b82611874565b9050919050565b60008115159050919050565b6000819050919050565b60007fffffffff0000000000000000000000000000000000000000000000000000000082169050919050565b600073ffffffffffffffffffffffffffffffffffffffff82169050919050565b6000819050919050565b82818337600083830152505050565b60005b838110156118cb5780820151818401526020810190506118b0565b838111156118da576000848401525b50505050565b600060028204905060018216806118f857607f821691505b6020821081141561190c5761190b6119e9565b5b50919050565b61191b82611a8a565b810181811067ffffffffffffffff8211171561193a57611939611a47565b5b80604052505050565b600061194e82611894565b91507fffffffffffffffffffffffffffffffffffffffffffffffffffffffffffffffff821415611981576119806119ba565b5b600182019050919050565b60006119978261199e565b9050919050565b60006119a982611a9b565b9050919050565b6000819050919050565b7f4e487b7100000000000000000000000000000000000000000000000000000000600052601160045260246000fd5b7f4e487b7100000000000000000000000000000000000000000000000000000000600052602260045260246000fd5b7f4e487b7100000000000000000000000000000000000000000000000000000000600052603260045260246000fd5b7f4e487b7100000000000000000000000000000000000000000000000000000000600052604160045260246000fd5b600080fd5b600080fd5b600080fd5b600080fd5b6000601f19601f8301169050919050565b60008160601b9050919050565b7f53656e64657220616c7265616479206f776e7320746f6b656e00000000000000600082015250565b7f4f776e6572206973206e6f74206e756c6c000000000000000000000000000000600082015250565b7f56616c75652073656e7420697320746f6f206c6f770000000000000000000000600082015250565b7f4e4654206e6f7420666f722073616c6500000000000000000000000000000000600082015250565b7f53656e646572206973206e6f74206f776e657200000000000000000000000000600082015250565b50565b7f53656e646572206973206e6f74206e756c6c0000000000000000000000000000600082015250565b7f4974656d20616c7265616479206c697374656400000000000000000000000000600082015250565b611bd381611820565b8114611bde57600080fd5b50565b611bea8161183e565b8114611bf557600080fd5b50565b611c0181611894565b8114611c0c57600080fd5b5056fea2646970667358221220f969f35025c0de83a7c85c1b86e9b1dcabcfe669bbf62c0ae0d3d01e556cf4da64736f6c63430008050033",
  "immutableReferences": {},
  "source": "// SPDX-License-Identifier: MIT\npragma solidity ^0.8.5;\n\nimport \"@openzeppelin/contracts/token/ERC721/ERC721.sol\";\nimport \"@openzeppelin/contracts/token/ERC721/extensions/ERC721URIStorage.sol\";\nimport \"@openzeppelin/contracts/access/Ownable.sol\";\nimport \"@openzeppelin/contracts/utils/Counters.sol\";\nimport \"@openzeppelin/contracts/token/ERC721/IERC721Receiver.sol\";\nimport \"@openzeppelin/contracts/security/ReentrancyGuard.sol\";\n\nimport \"./BlockchainArt.sol\";\n\ncontract Shop is IERC721Receiver, ReentrancyGuard {\n    address payable private contractOwner;\n    mapping(address=>mapping(uint=>uint)) prices;\n    mapping(uint=>address) private owners;\n    mapping(bytes32=>ArtItem) artItems;\n    mapping(bytes32=>uint) artIdToIndex;\n    bytes32[] artIds;\n    \n\n    using Counters for Counters.Counter;\n    Counters.Counter private  artIdCounter;\n    Counters.Counter private _tokenIdCounter;\n    Counters.Counter private _soldArtIdCounter;\n\n    event NFTMinted(address indexed nftContract);\n    event ShopCreated(address indexed contractOwner);\n    event NFTToBeBought(bytes32 artId);\n    event NFTBought(address indexed nftContract, address indexed buyer, uint indexed tokenId);\n    event NFTListed(bytes32 indexed artId, address indexed nftcontract, uint indexed tokenId, address sender);\n    struct ArtItem {\n        bytes32 artId;\n        address nftContract;\n        address currentOwner;\n        uint tokenId;\n        string title;\n        uint price;\n        bool forSale;\n    }\n\n\n    modifier onlyOwner {\n        require(msg.sender == contractOwner);\n        _;\n    }\n    constructor() {\n        contractOwner = payable(msg.sender);\n        emit ShopCreated(contractOwner);\n    }\n\n    function hash1(address nftContract, uint tokenId) internal view returns(bytes32) {\n       return keccak256(abi.encodePacked(nftContract, tokenId));\n    }\n\n    function buyItem(bytes32 artId) payable public {\n\n        ArtItem storage artItem = artItems[artId];\n        address owner = IERC721(artItem.nftContract).ownerOf(artItem.tokenId);\n        uint tokenId = artItem.tokenId;\n        address nftContract = artItem.nftContract;\n\n        require(owner != msg.sender, \"Sender already owns token\");\n        require(artItem.forSale, \"NFT not for sale\");\n        require(msg.value >= artItem.price, \"Value sent is too low\");\n        require(msg.sender != address(0), \"Sender is not null\");\n        require(artItem.currentOwner != address(0), \"Owner is not null\");\n        // delete artItems[artId];\n        removeItem(artId);\n        IERC721(nftContract).safeTransferFrom(owner, msg.sender, tokenId);\n        payable(owner).call{value: msg.value}('');\n        emit NFTBought(nftContract, msg.sender, tokenId);\n\n    }\n\n    function listItem(address nftContract, uint tokenId, uint price, string memory title) public returns (bytes32) {\n        address owner = IERC721(nftContract).ownerOf(tokenId);\n        require(owner == msg.sender, \"Sender is not owner\");\n        bytes32 artId = hash1(nftContract, tokenId);\n        ArtItem storage artItem = artItems[artId];\n        require(artItem.forSale == false, \"Item already listed\");\n\n        // artItems[artId] = ArtItem(artId, nftContract, owner, tokenId, title, price, true);\n        addItem(artId, nftContract, owner, tokenId, title, price);\n        emit NFTListed(artItem.artId, artItem.nftContract, artItem.tokenId, msg.sender);\n        return artItem.artId;\n    }\n\n    function addItem(bytes32 artId, address nftContract, address owner, uint tokenId, string memory title, uint price) internal {\n        artIdCounter.increment();\n        if (artItems[artId].forSale == false) {\n            artItems[artId] = ArtItem(artId, nftContract, owner, tokenId, title, price, true);\n            artIdToIndex[artId] = artIds.length;\n            artIds.push(artId);\n        }\n    }\n\n    function removeItem(bytes32 artId) internal {\n        _soldArtIdCounter.increment();\n        if (artItems[artId].forSale) {\n           delete artItems[artId];\n           delete artIds[artIdToIndex[artId]];\n           delete artIdToIndex[artId];\n        }\n    }\n\n    function fetchListedItems() public view returns (ArtItem[] memory) {\n        ArtItem[] memory items = new ArtItem[](artIdCounter.current() - _soldArtIdCounter.current());\n\n        uint j = 0;\n        for (uint i = 0; i < artIdCounter.current(); i++) {\n            if (artItems[artIds[i]].forSale) {\n                items[j] = artItems[artIds[i]];\n                j++;\n            }\n        }\n        return items;\n    }\n\n\n\n    function owner() public view returns (address) {\n        return contractOwner;\n    }\n\n    function onERC721Received(address, address, uint256, bytes memory) public virtual override returns (bytes4) {\n        return this.onERC721Received.selector;\n    }\n\n\n\n\n\n}\n\n",
  "sourcePath": "/Users/pablo/Work/Projects/blockchain-developer-bootcamp-final-project/contracts/Shop.sol",
  "compiler": {
    "name": "solc",
    "version": "0.8.5+commit.a4f2e591.Emscripten.clang"
  },
  "schemaVersion": "3.4.3",
  "updatedAt": "2021-11-25T16:07:43.744Z",
  "networkType": "ethereum",
  "devdoc": {
    "kind": "dev",
    "methods": {},
    "version": 1
  },
  "userdoc": {
    "kind": "user",
    "methods": {},
    "version": 1
  }
}