{
  "contractName": "Shop",
  "abi": [
    {
      "inputs": [],
      "stateMutability": "nonpayable",
      "type": "constructor"
    },
    {
      "anonymous": false,
      "inputs": [
        {
          "indexed": true,
          "internalType": "address",
          "name": "nftContract",
          "type": "address"
        },
        {
          "indexed": true,
          "internalType": "address",
          "name": "buyer",
          "type": "address"
        },
        {
          "indexed": true,
          "internalType": "uint256",
          "name": "tokenId",
          "type": "uint256"
        }
      ],
      "name": "NFTBought",
      "type": "event"
    },
    {
      "anonymous": false,
      "inputs": [
        {
          "indexed": true,
          "internalType": "bytes32",
          "name": "artId",
          "type": "bytes32"
        },
        {
          "indexed": true,
          "internalType": "address",
          "name": "nftcontract",
          "type": "address"
        },
        {
          "indexed": true,
          "internalType": "uint256",
          "name": "tokenId",
          "type": "uint256"
        },
        {
          "indexed": false,
          "internalType": "address",
          "name": "sender",
          "type": "address"
        }
      ],
      "name": "NFTListed",
      "type": "event"
    },
    {
      "anonymous": false,
      "inputs": [
        {
          "indexed": true,
          "internalType": "address",
          "name": "nftContract",
          "type": "address"
        }
      ],
      "name": "NFTMinted",
      "type": "event"
    },
    {
      "anonymous": false,
      "inputs": [
        {
          "indexed": false,
          "internalType": "bytes32",
          "name": "artId",
          "type": "bytes32"
        }
      ],
      "name": "NFTToBeBought",
      "type": "event"
    },
    {
      "anonymous": false,
      "inputs": [
        {
          "indexed": true,
          "internalType": "address",
          "name": "contractOwner",
          "type": "address"
        }
      ],
      "name": "ShopCreated",
      "type": "event"
    },
    {
      "inputs": [
        {
          "internalType": "bytes32",
          "name": "artId",
          "type": "bytes32"
        }
      ],
      "name": "buyItem",
      "outputs": [],
      "stateMutability": "payable",
      "type": "function",
      "payable": true
    },
    {
      "inputs": [
        {
          "internalType": "address",
          "name": "nftContract",
          "type": "address"
        },
        {
          "internalType": "uint256",
          "name": "tokenId",
          "type": "uint256"
        },
        {
          "internalType": "uint256",
          "name": "price",
          "type": "uint256"
        },
        {
          "internalType": "string",
          "name": "title",
          "type": "string"
        }
      ],
      "name": "listItem",
      "outputs": [
        {
          "internalType": "bytes32",
          "name": "",
          "type": "bytes32"
        }
      ],
      "stateMutability": "nonpayable",
      "type": "function"
    },
    {
      "inputs": [],
      "name": "fetchListedItems",
      "outputs": [
        {
          "components": [
            {
              "internalType": "bytes32",
              "name": "artId",
              "type": "bytes32"
            },
            {
              "internalType": "address",
              "name": "nftContract",
              "type": "address"
            },
            {
              "internalType": "address",
              "name": "currentOwner",
              "type": "address"
            },
            {
              "internalType": "uint256",
              "name": "tokenId",
              "type": "uint256"
            },
            {
              "internalType": "string",
              "name": "title",
              "type": "string"
            },
            {
              "internalType": "uint256",
              "name": "price",
              "type": "uint256"
            },
            {
              "internalType": "bool",
              "name": "forSale",
              "type": "bool"
            }
          ],
          "internalType": "struct Shop.ArtItem[]",
          "name": "",
          "type": "tuple[]"
        }
      ],
      "stateMutability": "view",
      "type": "function",
      "constant": true
    },
    {
      "inputs": [],
      "name": "owner",
      "outputs": [
        {
          "internalType": "address",
          "name": "",
          "type": "address"
        }
      ],
      "stateMutability": "view",
      "type": "function",
      "constant": true
    },
    {
      "inputs": [
        {
          "internalType": "address",
          "name": "",
          "type": "address"
        },
        {
          "internalType": "address",
          "name": "",
          "type": "address"
        },
        {
          "internalType": "uint256",
          "name": "",
          "type": "uint256"
        },
        {
          "internalType": "bytes",
          "name": "",
          "type": "bytes"
        }
      ],
      "name": "onERC721Received",
      "outputs": [
        {
          "internalType": "bytes4",
          "name": "",
          "type": "bytes4"
        }
      ],
      "stateMutability": "nonpayable",
      "type": "function"
    }
  ],
  "bytecode": "0x608060405234801561001057600080fd5b50600160008190555033600160006101000a81548173ffffffffffffffffffffffffffffffffffffffff021916908373ffffffffffffffffffffffffffffffffffffffff160217905550600160009054906101000a900473ffffffffffffffffffffffffffffffffffffffff1673ffffffffffffffffffffffffffffffffffffffff167f60b12a29ccebdbc5e298f82f8a9409af4cf09db9b22631697ce14b6e17144ccc60405160405180910390a2611c27806100ce6000396000f3fe60806040526004361061004a5760003560e01c8063150b7a021461004f5780635095709e1461008c5780638da5cb5b146100c9578063cfd31e2c146100f4578063f169bf071461011f575b600080fd5b34801561005b57600080fd5b506100766004803603810190610071919061112e565b61013b565b60405161008391906111ec565b60405180910390f35b34801561009857600080fd5b506100b360048036038101906100ae91906112a8565b61014f565b6040516100c09190611344565b60405180910390f35b3480156100d557600080fd5b506100de610355565b6040516100eb919061136e565b60405180910390f35b34801561010057600080fd5b5061010961037f565b60405161011691906115b7565b60405180910390f35b61013960048036038101906101349190611605565b61064e565b005b600063150b7a0260e01b9050949350505050565b6000808573ffffffffffffffffffffffffffffffffffffffff16636352211e866040518263ffffffff1660e01b815260040161018b9190611641565b602060405180830381865afa1580156101a8573d6000803e3d6000fd5b505050506040513d601f19601f820116820180604052508101906101cc9190611671565b90503373ffffffffffffffffffffffffffffffffffffffff168173ffffffffffffffffffffffffffffffffffffffff161461023c576040517f08c379a0000000000000000000000000000000000000000000000000000000008152600401610233906116fb565b60405180910390fd5b60006102488787610a8b565b90506000600460008381526020019081526020016000209050600015158160060160009054906101000a900460ff161515146102b9576040517f08c379a00000000000000000000000000000000000000000000000000000000081526004016102b090611767565b60405180910390fd5b6102c78289858a898b610abe565b80600301548160010160009054906101000a900473ffffffffffffffffffffffffffffffffffffffff1673ffffffffffffffffffffffffffffffffffffffff1682600001547f5673291e37a655432db2bb3ab1226d7872e744c1f203286af08aee479b50b1913360405161033b919061136e565b60405180910390a480600001549350505050949350505050565b6000600160009054906101000a900473ffffffffffffffffffffffffffffffffffffffff16905090565b6060600061038d6009610ca8565b6103976007610ca8565b6103a191906117b6565b67ffffffffffffffff8111156103ba576103b9611003565b5b6040519080825280602002602001820160405280156103f357816020015b6103e0610def565b8152602001906001900390816103d85790505b5090506000805b6104046007610ca8565b811015610645576004600060068381548110610423576104226117ea565b5b9060005260206000200154815260200190815260200160002060060160009054906101000a900460ff161561063257600460006006838154811061046a576104696117ea565b5b906000526020600020015481526020019081526020016000206040518060e0016040529081600082015481526020016001820160009054906101000a900473ffffffffffffffffffffffffffffffffffffffff1673ffffffffffffffffffffffffffffffffffffffff1673ffffffffffffffffffffffffffffffffffffffff1681526020016002820160009054906101000a900473ffffffffffffffffffffffffffffffffffffffff1673ffffffffffffffffffffffffffffffffffffffff1673ffffffffffffffffffffffffffffffffffffffff1681526020016003820154815260200160048201805461055e90611848565b80601f016020809104026020016040519081016040528092919081815260200182805461058a90611848565b80156105d75780601f106105ac576101008083540402835291602001916105d7565b820191906000526020600020905b8154815290600101906020018083116105ba57829003601f168201915b50505050508152602001600582015481526020016006820160009054906101000a900460ff161515151581525050838381518110610618576106176117ea565b5b6020026020010181905250818061062e9061187a565b9250505b808061063d9061187a565b9150506103fa565b50819250505090565b600060046000838152602001908152602001600020905060008160010160009054906101000a900473ffffffffffffffffffffffffffffffffffffffff1673ffffffffffffffffffffffffffffffffffffffff16636352211e83600301546040518263ffffffff1660e01b81526004016106c89190611641565b602060405180830381865afa1580156106e5573d6000803e3d6000fd5b505050506040513d601f19601f820116820180604052508101906107099190611671565b905060008260030154905060008360010160009054906101000a900473ffffffffffffffffffffffffffffffffffffffff1690503373ffffffffffffffffffffffffffffffffffffffff168373ffffffffffffffffffffffffffffffffffffffff1614156107ac576040517f08c379a00000000000000000000000000000000000000000000000000000000081526004016107a39061190f565b60405180910390fd5b8360060160009054906101000a900460ff166107fd576040517f08c379a00000000000000000000000000000000000000000000000000000000081526004016107f49061197b565b60405180910390fd5b8360050154341015610844576040517f08c379a000000000000000000000000000000000000000000000000000000000815260040161083b906119e7565b60405180910390fd5b600073ffffffffffffffffffffffffffffffffffffffff163373ffffffffffffffffffffffffffffffffffffffff1614156108b4576040517f08c379a00000000000000000000000000000000000000000000000000000000081526004016108ab90611a53565b60405180910390fd5b600073ffffffffffffffffffffffffffffffffffffffff168460020160009054906101000a900473ffffffffffffffffffffffffffffffffffffffff1673ffffffffffffffffffffffffffffffffffffffff161415610948576040517f08c379a000000000000000000000000000000000000000000000000000000000815260040161093f90611abf565b60405180910390fd5b61095185610cb6565b8073ffffffffffffffffffffffffffffffffffffffff166342842e0e8433856040518463ffffffff1660e01b815260040161098e93929190611adf565b600060405180830381600087803b1580156109a857600080fd5b505af11580156109bc573d6000803e3d6000fd5b505050508273ffffffffffffffffffffffffffffffffffffffff16346040516109e490611b47565b60006040518083038185875af1925050503d8060008114610a21576040519150601f19603f3d011682016040523d82523d6000602084013e610a26565b606091505b505050813373ffffffffffffffffffffffffffffffffffffffff168273ffffffffffffffffffffffffffffffffffffffff167fcd1344421cbf20fee1675696dc29224085bc8d25b5d4e70fc4fb7a68c76af49460405160405180910390a45050505050565b60008282604051602001610aa0929190611bc5565b60405160208183030381529060405280519060200120905092915050565b610ac86007610dd9565b600015156004600088815260200190815260200160002060060160009054906101000a900460ff1615151415610ca0576040518060e001604052808781526020018673ffffffffffffffffffffffffffffffffffffffff1681526020018573ffffffffffffffffffffffffffffffffffffffff16815260200184815260200183815260200182815260200160011515815250600460008881526020019081526020016000206000820151816000015560208201518160010160006101000a81548173ffffffffffffffffffffffffffffffffffffffff021916908373ffffffffffffffffffffffffffffffffffffffff16021790555060408201518160020160006101000a81548173ffffffffffffffffffffffffffffffffffffffff021916908373ffffffffffffffffffffffffffffffffffffffff160217905550606082015181600301556080820151816004019080519060200190610c2b929190610e5d565b5060a0820151816005015560c08201518160060160006101000a81548160ff021916908315150217905550905050600680549050600560008881526020019081526020016000208190555060068690806001815401808255809150506001900390600052602060002001600090919091909150555b505050505050565b600081600001549050919050565b610cc06009610dd9565b6004600082815260200190815260200160002060060160009054906101000a900460ff1615610dd657600460008281526020019081526020016000206000808201600090556001820160006101000a81549073ffffffffffffffffffffffffffffffffffffffff02191690556002820160006101000a81549073ffffffffffffffffffffffffffffffffffffffff02191690556003820160009055600482016000610d6b9190610ee3565b60058201600090556006820160006101000a81549060ff021916905550506006600560008381526020019081526020016000205481548110610db057610daf6117ea565b5b906000526020600020016000905560056000828152602001908152602001600020600090555b50565b6001816000016000828254019250508190555050565b6040518060e0016040528060008019168152602001600073ffffffffffffffffffffffffffffffffffffffff168152602001600073ffffffffffffffffffffffffffffffffffffffff1681526020016000815260200160608152602001600081526020016000151581525090565b828054610e6990611848565b90600052602060002090601f016020900481019282610e8b5760008555610ed2565b82601f10610ea457805160ff1916838001178555610ed2565b82800160010185558215610ed2579182015b82811115610ed1578251825591602001919060010190610eb6565b5b509050610edf9190610f23565b5090565b508054610eef90611848565b6000825580601f10610f015750610f20565b601f016020900490600052602060002090810190610f1f9190610f23565b5b50565b5b80821115610f3c576000816000905550600101610f24565b5090565b6000604051905090565b600080fd5b600080fd5b600073ffffffffffffffffffffffffffffffffffffffff82169050919050565b6000610f7f82610f54565b9050919050565b610f8f81610f74565b8114610f9a57600080fd5b50565b600081359050610fac81610f86565b92915050565b6000819050919050565b610fc581610fb2565b8114610fd057600080fd5b50565b600081359050610fe281610fbc565b92915050565b600080fd5b600080fd5b6000601f19601f8301169050919050565b7f4e487b7100000000000000000000000000000000000000000000000000000000600052604160045260246000fd5b61103b82610ff2565b810181811067ffffffffffffffff8211171561105a57611059611003565b5b80604052505050565b600061106d610f40565b90506110798282611032565b919050565b600067ffffffffffffffff82111561109957611098611003565b5b6110a282610ff2565b9050602081019050919050565b82818337600083830152505050565b60006110d16110cc8461107e565b611063565b9050828152602081018484840111156110ed576110ec610fed565b5b6110f88482856110af565b509392505050565b600082601f83011261111557611114610fe8565b5b81356111258482602086016110be565b91505092915050565b6000806000806080858703121561114857611147610f4a565b5b600061115687828801610f9d565b945050602061116787828801610f9d565b935050604061117887828801610fd3565b925050606085013567ffffffffffffffff81111561119957611198610f4f565b5b6111a587828801611100565b91505092959194509250565b60007fffffffff0000000000000000000000000000000000000000000000000000000082169050919050565b6111e6816111b1565b82525050565b600060208201905061120160008301846111dd565b92915050565b600067ffffffffffffffff82111561122257611221611003565b5b61122b82610ff2565b9050602081019050919050565b600061124b61124684611207565b611063565b90508281526020810184848401111561126757611266610fed565b5b6112728482856110af565b509392505050565b600082601f83011261128f5761128e610fe8565b5b813561129f848260208601611238565b91505092915050565b600080600080608085870312156112c2576112c1610f4a565b5b60006112d087828801610f9d565b94505060206112e187828801610fd3565b93505060406112f287828801610fd3565b925050606085013567ffffffffffffffff81111561131357611312610f4f565b5b61131f8782880161127a565b91505092959194509250565b6000819050919050565b61133e8161132b565b82525050565b60006020820190506113596000830184611335565b92915050565b61136881610f74565b82525050565b6000602082019050611383600083018461135f565b92915050565b600081519050919050565b600082825260208201905092915050565b6000819050602082019050919050565b6113be8161132b565b82525050565b6113cd81610f74565b82525050565b6113dc81610fb2565b82525050565b600081519050919050565b600082825260208201905092915050565b60005b8381101561141c578082015181840152602081019050611401565b8381111561142b576000848401525b50505050565b600061143c826113e2565b61144681856113ed565b93506114568185602086016113fe565b61145f81610ff2565b840191505092915050565b60008115159050919050565b61147f8161146a565b82525050565b600060e08301600083015161149d60008601826113b5565b5060208301516114b060208601826113c4565b5060408301516114c360408601826113c4565b5060608301516114d660608601826113d3565b50608083015184820360808601526114ee8282611431565b91505060a083015161150360a08601826113d3565b5060c083015161151660c0860182611476565b508091505092915050565b600061152d8383611485565b905092915050565b6000602082019050919050565b600061154d82611389565b6115578185611394565b935083602082028501611569856113a5565b8060005b858110156115a557848403895281516115868582611521565b945061159183611535565b925060208a0199505060018101905061156d565b50829750879550505050505092915050565b600060208201905081810360008301526115d18184611542565b905092915050565b6115e28161132b565b81146115ed57600080fd5b50565b6000813590506115ff816115d9565b92915050565b60006020828403121561161b5761161a610f4a565b5b6000611629848285016115f0565b91505092915050565b61163b81610fb2565b82525050565b60006020820190506116566000830184611632565b92915050565b60008151905061166b81610f86565b92915050565b60006020828403121561168757611686610f4a565b5b60006116958482850161165c565b91505092915050565b600082825260208201905092915050565b7f53656e646572206973206e6f74206f776e657200000000000000000000000000600082015250565b60006116e560138361169e565b91506116f0826116af565b602082019050919050565b60006020820190508181036000830152611714816116d8565b9050919050565b7f4974656d20616c7265616479206c697374656400000000000000000000000000600082015250565b600061175160138361169e565b915061175c8261171b565b602082019050919050565b6000602082019050818103600083015261178081611744565b9050919050565b7f4e487b7100000000000000000000000000000000000000000000000000000000600052601160045260246000fd5b60006117c182610fb2565b91506117cc83610fb2565b9250828210156117df576117de611787565b5b828203905092915050565b7f4e487b7100000000000000000000000000000000000000000000000000000000600052603260045260246000fd5b7f4e487b7100000000000000000000000000000000000000000000000000000000600052602260045260246000fd5b6000600282049050600182168061186057607f821691505b6020821081141561187457611873611819565b5b50919050565b600061188582610fb2565b91507fffffffffffffffffffffffffffffffffffffffffffffffffffffffffffffffff8214156118b8576118b7611787565b5b600182019050919050565b7f53656e64657220616c7265616479206f776e7320746f6b656e00000000000000600082015250565b60006118f960198361169e565b9150611904826118c3565b602082019050919050565b60006020820190508181036000830152611928816118ec565b9050919050565b7f4e4654206e6f7420666f722073616c6500000000000000000000000000000000600082015250565b600061196560108361169e565b91506119708261192f565b602082019050919050565b6000602082019050818103600083015261199481611958565b9050919050565b7f56616c75652073656e7420697320746f6f206c6f770000000000000000000000600082015250565b60006119d160158361169e565b91506119dc8261199b565b602082019050919050565b60006020820190508181036000830152611a00816119c4565b9050919050565b7f53656e646572206973206e6f74206e756c6c0000000000000000000000000000600082015250565b6000611a3d60128361169e565b9150611a4882611a07565b602082019050919050565b60006020820190508181036000830152611a6c81611a30565b9050919050565b7f4f776e6572206973206e6f74206e756c6c000000000000000000000000000000600082015250565b6000611aa960118361169e565b9150611ab482611a73565b602082019050919050565b60006020820190508181036000830152611ad881611a9c565b9050919050565b6000606082019050611af4600083018661135f565b611b01602083018561135f565b611b0e6040830184611632565b949350505050565b600081905092915050565b50565b6000611b31600083611b16565b9150611b3c82611b21565b600082019050919050565b6000611b5282611b24565b9150819050919050565b60008160601b9050919050565b6000611b7482611b5c565b9050919050565b6000611b8682611b69565b9050919050565b611b9e611b9982610f74565b611b7b565b82525050565b6000819050919050565b611bbf611bba82610fb2565b611ba4565b82525050565b6000611bd18285611b8d565b601482019150611be18284611bae565b602082019150819050939250505056fea26469706673582212202c9de224da2e0ad983a6acee6924cfe7043cc62c03452b07a9322f5e996f284464736f6c634300080a0033",
  "immutableReferences": {},
  "source": "// SPDX-License-Identifier: MIT\npragma solidity 0.8.10;\n\nimport \"@openzeppelin/contracts/token/ERC721/ERC721.sol\";\nimport \"@openzeppelin/contracts/token/ERC721/extensions/ERC721URIStorage.sol\";\nimport \"@openzeppelin/contracts/access/Ownable.sol\";\nimport \"@openzeppelin/contracts/utils/Counters.sol\";\nimport \"@openzeppelin/contracts/token/ERC721/IERC721Receiver.sol\";\nimport \"@openzeppelin/contracts/security/ReentrancyGuard.sol\";\n\nimport \"./BlockchainArt.sol\";\n\ncontract Shop is IERC721Receiver, ReentrancyGuard {\n    address payable private contractOwner;\n    mapping(address=>mapping(uint=>uint)) prices;\n    mapping(uint=>address) private owners;\n    mapping(bytes32=>ArtItem) artItems;\n    mapping(bytes32=>uint) artIdToIndex;\n    bytes32[] artIds;\n    \n\n    using Counters for Counters.Counter;\n    Counters.Counter private  artIdCounter;\n    Counters.Counter private _tokenIdCounter;\n    Counters.Counter private _soldArtIdCounter;\n\n    event NFTMinted(address indexed nftContract);\n    event ShopCreated(address indexed contractOwner);\n    event NFTToBeBought(bytes32 artId);\n    event NFTBought(address indexed nftContract, address indexed buyer, uint indexed tokenId);\n    event NFTListed(bytes32 indexed artId, address indexed nftcontract, uint indexed tokenId, address sender);\n    struct ArtItem {\n        bytes32 artId;\n        address nftContract;\n        address currentOwner;\n        uint tokenId;\n        string title;\n        uint price;\n        bool forSale;\n    }\n\n\n    modifier onlyOwner {\n        require(msg.sender == contractOwner);\n        _;\n    }\n    constructor() {\n        contractOwner = payable(msg.sender);\n        emit ShopCreated(contractOwner);\n    }\n\n    function hash1(address nftContract, uint tokenId) internal view returns(bytes32) {\n       return keccak256(abi.encodePacked(nftContract, tokenId));\n    }\n\n    function buyItem(bytes32 artId) payable public {\n\n        ArtItem storage artItem = artItems[artId];\n        address owner = IERC721(artItem.nftContract).ownerOf(artItem.tokenId);\n        uint tokenId = artItem.tokenId;\n        address nftContract = artItem.nftContract;\n\n        require(owner != msg.sender, \"Sender already owns token\");\n        require(artItem.forSale, \"NFT not for sale\");\n        require(msg.value >= artItem.price, \"Value sent is too low\");\n        require(msg.sender != address(0), \"Sender is not null\");\n        require(artItem.currentOwner != address(0), \"Owner is not null\");\n        // delete artItems[artId];\n        removeItem(artId);\n        IERC721(nftContract).safeTransferFrom(owner, msg.sender, tokenId);\n        payable(owner).call{value: msg.value}('');\n        emit NFTBought(nftContract, msg.sender, tokenId);\n\n    }\n\n    function listItem(address nftContract, uint tokenId, uint price, string memory title) public returns (bytes32) {\n        address owner = IERC721(nftContract).ownerOf(tokenId);\n        require(owner == msg.sender, \"Sender is not owner\");\n        bytes32 artId = hash1(nftContract, tokenId);\n        ArtItem storage artItem = artItems[artId];\n        require(artItem.forSale == false, \"Item already listed\");\n\n        // artItems[artId] = ArtItem(artId, nftContract, owner, tokenId, title, price, true);\n        addItem(artId, nftContract, owner, tokenId, title, price);\n        emit NFTListed(artItem.artId, artItem.nftContract, artItem.tokenId, msg.sender);\n        return artItem.artId;\n    }\n\n    function addItem(bytes32 artId, address nftContract, address owner, uint tokenId, string memory title, uint price) internal {\n        artIdCounter.increment();\n        if (artItems[artId].forSale == false) {\n            artItems[artId] = ArtItem(artId, nftContract, owner, tokenId, title, price, true);\n            artIdToIndex[artId] = artIds.length;\n            artIds.push(artId);\n        }\n    }\n\n    function removeItem(bytes32 artId) internal {\n        _soldArtIdCounter.increment();\n        if (artItems[artId].forSale) {\n           delete artItems[artId];\n           delete artIds[artIdToIndex[artId]];\n           delete artIdToIndex[artId];\n        }\n    }\n\n    function fetchListedItems() public view returns (ArtItem[] memory) {\n        ArtItem[] memory items = new ArtItem[](artIdCounter.current() - _soldArtIdCounter.current());\n\n        uint j = 0;\n        for (uint i = 0; i < artIdCounter.current(); i++) {\n            if (artItems[artIds[i]].forSale) {\n                items[j] = artItems[artIds[i]];\n                j++;\n            }\n        }\n        return items;\n    }\n\n\n\n    function owner() public view returns (address) {\n        return contractOwner;\n    }\n\n    function onERC721Received(address, address, uint256, bytes memory) public virtual override returns (bytes4) {\n        return this.onERC721Received.selector;\n    }\n\n\n\n\n\n}\n\n",
  "sourcePath": "/Users/pablo/Work/Projects/blockchain-developer-bootcamp-final-project/contracts/Shop.sol",
  "compiler": {
    "name": "solc",
    "version": "0.8.10+commit.fc410830.Emscripten.clang"
  },
  "schemaVersion": "3.4.3",
  "updatedAt": "2021-11-28T15:08:41.169Z",
  "networkType": "ethereum",
  "devdoc": {
    "kind": "dev",
    "methods": {},
    "version": 1
  },
  "userdoc": {
    "kind": "user",
    "methods": {},
    "version": 1
  }
}